:100000000C9446000C9466000C9466000C946600F8
:100010000C9466000C9466000C9466000C946600C8
:100020000C9466000C94AA020C9466000C94660072
:100030000C9466000C9466000C9466000C945602B6
:100040000C9499020C9466000C9466000C94660063
:100050000C9466000C9466000C9466000C94660088
:100060000C9498010C9466000C9466000C94660045
:100070000C9466000C9466000C9466000C94660068
:100080000C9466000C9466000C94660011241FBE4C
:10009000CFEFD0E4DEBFCDBF16E0A0E0B1E0ECE8EA
:1000A000FDE000E00BBF02C007900D92A631B10742
:1000B000D9F71BBE16E0A6E1B6E001C01D92A1383B
:1000C000B107E1F70E94B5010C94C4060C9400003E
:1000D000529A539A54985A985B980895FC015B98E9
:1000E00020E12A95F1F700C05B9A87E090E040E0BC
:1000F00029B130E0207130703595279535952795D9
:100100003595279535952795082E02C0220F331F68
:100110000A94E2F7422B5A9A00C000C000005A9895
:1001200001972FEF8F3F920719F7408308952C9A7C
:1001300000C02C980895CF93662311F02A9A01C02D
:100140002A982B98549A559A569A579A5F985E987F
:100150005D985C9888230CF45F9AC82F86FD5E9AA0
:10016000C5FD5D9AC4FD5C9A0E9497005F985E98F9
:100170005D985C98C3FD5F9AC2FD5E9AC1FD5D9A71
:10018000C0FD5C9A0E9497005C9A5D9A5E9A5F9AA5
:10019000CF910895882311F02A9A01C02A982B9AAA
:1001A00054985598569857982C9A00C04C9902C06C
:1001B00080E001C080E14D9980624E9980644F9942
:1001C00080682C9800C02C9A00C04C9981604D9991
:1001D00082604E9984604F9988602C98089580E0E1
:1001E0000E94CA008823DCF384E090E00197F1F7D5
:1001F00080E00E94CA000895CF93C82F0E94EF00AC
:100200008C2F60E00E949B00CF910895CF93C82F60
:100210000E94EF008C2F61E00E949B00CF91089517
:10022000662321F480580E94FC00089580540E94A7
:10023000FC0008950E94EF0090E0089581E00E9484
:10024000FC00089582E00E94FC000895CF93C82F1F
:100250000E94EF00CA3049F4803410F480E401C0F9
:1002600080E080580E94FC0004C08C2F61E00E9456
:100270009B00CF910895CF93DF93EC018881882371
:1002800031F021960E94260189918823D9F7DF91C8
:10029000CF910895CF93DF93EC01FC0184918823E3
:1002A00041F021960E942601FE0121968491882327
:1002B000C9F7DF91CF9108951F93CF93DF93182F44
:1002C000229A239A249A549A559A569A579A80E0D9
:1002D0009DE70197F1F75D9A5C9A0E94970080E094
:1002E00097E20197F1F70E949700C0E8D0E0CE01B5
:1002F0000197F1F70E949700CE010197F1F75C9802
:100300000E9497002197F1F788E20E94FC0088E0A4
:100310000E94FC000E941E0186E00E94FC00812FCA
:100320000E94FC00DF91CF911F91089582E0089513
:100330001F920F920FB60F920BB60F9211248F934C
:10034000EF93FF938091790080931606EAE7F0E03F
:10035000808180648083FF91EF918F910F900BBE1D
:100360000F900FBE0F901F901895EAE7F0E0808184
:10037000886C8083ECE7F0E08081806280834FEFBF
:1003800047B910924C0610923F0680E580936206B2
:1003900010927B0610924D061092400680936306E1
:1003A00010927C0610924E061092410680936406CD
:1003B00010927D0680E991E090935706809356064F
:1003C0001092700610926F061092720610927106CB
:1003D0001092740610927306409317064093180605
:1003E00040931906789486E194E09093690680938F
:1003F000680626E133E030936B0620936A069093FB
:100400006D0680936C0644B94AB947B981E0809380
:10041000800089E080938100EFE6F0E080818160D8
:10042000808382E080936E0084BD95E095BD93EC5F
:1004300097BD809370008093B00094E69093B300D2
:100440008093B10078948CE00E945C0180E091E0A0
:100450000E943B01C2E5D6E008E011E0809116065B
:1004600000D000D000D0EDB7FEB73196ADB7BEB723
:100470001296DC93CE9311971383028384831582A3
:100480000E94EE038DB79EB706960FB6F8949EBFF6
:100490000FBE8DBFCE010E943B01AFE1BEE41197BC
:1004A000F1F700C000000E941E01D8CF1F920F92EA
:1004B0000FB60F920BB60F9211242F933F938F9389
:1004C0009F93EF93FF939091380681E08927809363
:1004D00038062091390630913A068091560690915F
:1004E0005706820F931F90933C0680933B06232F61
:1004F0003327E0916806F0916906E20FF31F20812F
:1005000020933D0690933A068093390680913E06EB
:100510008F5F80933E0628B9FF91EF919F918F9155
:100520003F912F910F900BBE0F900FBE0F901F9019
:1005300018951F920F920FB60F9211240F900FBEB5
:100540000F901F901895E1E3F6E0E60FF11D81E0B2
:10055000808308951F920F920FB60F920BB60F92E1
:1005600011244F925F926F927F929F92AF92BF92AF
:10057000CF92DF92EF92FF920F931F932F933F93AF
:100580004F935F936F937F938F939F93AF93BF939B
:10059000CF93DF93EF93FF93C1E3D6E0CE010E94A8
:1005A0009601582F61E276E0ABE1B6E00F2EFEE057
:1005B000EF2EF1E0FF2EF02D07E116E020E030E015
:1005C0009924939461C06D018C918F5F8C935E012F
:1005D0009881992379F1FB019081992379F1F901AF
:1005E000E45BF94F9081981788F4F8019081913875
:1005F00068F4F7014081442349F09F5FF80190833C
:100600001C929038B9F4F701108214C0F901E15C32
:10061000F94F9081981768F5F8019081F901EE592A
:10062000F94F8081891728F5892F8150F80180833F
:10063000F6011082FB0180818823D9F40F2EFBE79D
:100640006F2EF6E07F2EF02D620E731EF601808174
:10065000F3019081981768F4F8018081882319F0DC
:100660008150808302C0F5011082F6011082F701EB
:1006700090822F5F3F4F6F5F7F4F11960894E11C70
:10068000F11C0F5F1F4F2196251708F49CCF189B74
:1006900018C0809127068F5F809327068531E0F090
:1006A00080912106882351F4189B08C084EF91E0C3
:1006B00060E00E94A30281E0809321061092270649
:1006C0000BC0809124068F5F80932406853120F033
:1006D0001092210610922406189B18C080912806BB
:1006E0008F5F809328068531E0F080912206882371
:1006F00051F4189B08C08CE291E060E00E94A302D4
:1007000081E080932106109228060BC08091250677
:100710008F5F80932506853120F01092220610927B
:100720002506FF91EF91DF91CF91BF91AF919F91FE
:100730008F917F916F915F914F913F912F911F9179
:100740000F91FF90EF90DF90CF90BF90AF909F9070
:100750007F906F905F904F900F900BBE0F900FBEE9
:100760000F901F901895FFCFCF93DF93C82FD0E045
:10077000CC0FDD1FCA5AD94FCB01A0E0B0E07727DC
:10078000662720E030E848E351E00E94CC0339833B
:100790002883DF91CF910895A1E21A2EAA1BBB1BDB
:1007A000FD010DC0AA1FBB1FEE1FFF1FA217B3073D
:1007B000E407F50720F0A21BB30BE40BF50B661F53
:1007C000771F881F991F1A9469F760957095809517
:1007D00090959B01AC01BD01CF0108950F931F932C
:1007E000CF93DF93CDB7DEB72E970FB6F894DEBF69
:1007F0000FBECDBF0D891E8986E08C831A830983C5
:100800008FEF9FE79E838D83AE01475E5F4FCE01E2
:1008100001966F89788D0E941D04EF81F885E00FA5
:10082000F11F10822E960FB6F894DEBF0FBECDBF1B
:10083000DF91CF911F910F9108952F923F924F9288
:100840005F926F927F928F929F92AF92BF92CF9260
:10085000DF92EF92FF920F931F93CF93DF93CDB769
:10086000DEB72D970FB6F894DEBF0FBECDBF3C01AB
:100870007D876C875A01FC0117821682838181FF74
:10088000C8C12E010894411C511CF3019381EC85D1
:10089000FD8593FD859193FF8191FD87EC878823EA
:1008A00009F4B3C1853241F493FD859193FF8191A1
:1008B000FD87EC87853229F490E0B3010E943A0667
:1008C000E4CFFF24EE2410E01032B0F48B3269F054
:1008D0008C3228F4803251F0833271F40BC08D32A7
:1008E00039F0803349F411602CC01260146029C0C3
:1008F000186027C0106125C017FD2EC0282F205377
:100900002A3098F416FF08C08F2D880FF82EFF0CA0
:10091000FF0CF80EF20E15C08E2D880FE82EEE0C8F
:10092000EE0CE80EE20E10620CC08E3221F416FDC1
:100930006CC1106406C08C3611F4106802C0883691
:1009400059F4EC85FD8593FD859193FF8191FD8799
:10095000EC87882309F0B8CF982F9554933018F07E
:100960009052933038F424E030E0A20EB31E3FE3FF
:1009700039830FC0833631F0833781F0833509F036
:100980005AC022C0F5018081898322E030E0A20EA6
:10099000B31E21E0C22ED12C420114C092E0292EB8
:1009A000312C2A0C3B1CF5018080918016FF03C07E
:1009B0006F2D70E002C06FEF7FEFC4010E942F0621
:1009C0006C0151011F7715C082E0282E312C2A0CB2
:1009D0003B1CF5018080918016FF03C06F2D70E0F5
:1009E00002C06FEF7FEFC4010E9424066C01106803
:1009F000510113FD1CC006C080E290E0B3010E94CB
:100A00003A06EA948E2D90E0C816D906A8F30FC0D6
:100A1000F40117FD859117FF81914F0190E0B3011B
:100A20000E943A06E110EA940894C108D108C11462
:100A3000D10471F7E7C0843611F0893651F5F5011C
:100A400017FF07C080819181A281B38124E030E04B
:100A500008C080819181AA2797FDA095BA2F22E036
:100A600030E0A20EB31E012F0F76B7FF08C0B0957D
:100A7000A095909581959F4FAF4FBF4F0068BC01E7
:100A8000CD01A2012AE030E00E946606D82ED418DB
:100A90003FC0853721F41F7E2AE030E020C0197F57
:100AA0008F36A9F0803720F4883509F0AEC00BC02E
:100AB000803721F0883709F0A8C001C0106114FF09
:100AC00009C0146007C014FF08C0166006C028E003
:100AD00030E005C020E130E002C020E132E0F50165
:100AE00017FF07C0608171818281938144E050E0EB
:100AF00006C06081718180E090E042E050E0A40E89
:100B0000B51EA2010E946606D82ED418012F0F77B9
:100B100006FF09C00E7FDF1430F404FF06C002FD9B
:100B200004C00F7E02C01D2D01C01F2D802F90E03C
:100B300004FF0CC0FE01ED0DF11D2081203311F4E6
:100B4000097E09C002FF06C01E5F05C0867890704E
:100B5000009709F01F5F802E992403FD12C000FF4B
:100B60000DC0FD2C1E1550F4FE0CF11A1E2D06C0F2
:100B700080E290E0B3010E943A061F5F1E15C0F3A9
:100B800004C01E1510F4E11A01C0EE2484FE0FC04B
:100B900080E390E0B3010E943A0682FE1FC081FE0E
:100BA00003C088E590E010C088E790E00DC0C40164
:100BB00086789070009791F081FC02C080E201C0BD
:100BC0008BE207FD8DE290E0B3010E943A0606C079
:100BD00080E390E0B3010E943A06FA94DF14C0F378
:100BE000DA94F201ED0DF11D808190E0B3010E94D5
:100BF0003A06DD20A9F706C080E290E0B3010E942A
:100C00003A06EA94EE20C1F740CEF301868197813F
:100C100002C08FEF9FEF2D960FB6F894DEBF0FBE88
:100C2000CDBFDF91CF911F910F91FF90EF90DF909B
:100C3000CF90BF90AF909F908F907F906F905F907C
:100C40004F903F902F900895FC01059061507040A7
:100C50000110D8F7809590958E0F9F1F0895FC0185
:100C60006150704001900110D8F7809590958E0FDB
:100C70009F1F08950F931F93CF93DF938C01EB0178
:100C80008B8181FF1BC082FF0DC02E813F818C8133
:100C90009D812817390764F4E881F9810193F9836C
:100CA000E88306C0E885F985802F0995009731F41F
:100CB0008E819F8101969F838E8302C00FEF1FEF6D
:100CC000C801DF91CF911F910F910895FA01AA27D2
:100CD000283051F1203181F1E8946F936E7F6E5F7F
:100CE0007F4F8F4F9F4FAF4FB1E03ED0B4E03CD02D
:100CF000670F781F891F9A1FA11D680F791F8A1F10
:100D0000911DA11D6A0F711D811D911DA11D20D076
:100D100009F468943F912AE0269F11243019305D30
:100D20003193DEF6CF010895462F4770405D419321
:100D3000B3E00FD0C9F7F6CF462F4F70405D4A336E
:100D400018F0495D31FD4052419302D0A9F7EACF36
:100D5000B4E0A6959795879577956795BA95C9F765
:100D600000976105710508959B01AC010A2E069458
:100D70005795479537952795BA95C9F7620F731F11
:0C0D8000841F951FA01D0895F894FFCF5C
:100D8C0068656A73616E210025336900E1AC01016D
:100D9C00010101010000E0E0E1E1E2E3E5E6E7E961
:100DAC00EAEBECEDEEEEEEEDECEBEAE8E6E4E2E09D
:100DBC00DEDCDAD8D7D6D6D6D7D8D9DBDDE0E2E57B
:100DCC00E8EBEDEFF1F2F2F2F0EEEBE6E1DBD3CB98
:100DDC00C1B7ACA195897D7165594E443A31292230
:100DEC001C1713110F0E0E0F101214171A1C1F22A2
:100DFC00242628292A2A2A2928272523211F1D1B96
:100E0C001917151413121212121314151618191B84
:100E1C001C1D1E1F202020201F1E1D1C1B191816F8
:100E2C001514131212121213141517191B1D1F214E
:100E3C0023252728292A2A2A29282624221F1C1A56
:100E4C00171412100F0E0E0F1113171C2229313A02
:100E5C00444E5965717D8995A1ACB7C1CBD3DBE10B
:100E6C00E6EBEEF0F2F2F2F1EFEDEBE8E5E2E0DDCD
:100E7C00DBD9D8D7D6D6D6D7D8DADCDEE0E2E4E6B2
:100E8C00E8EAEBECEDEEEEEEEDECEBEAE9E7E6E5AD
:100E9C00E3E2E1E1E0E000020406080A0C0E1012A5
:100EAC001416181A1C1E20222426282A2C2E303206
:100EBC003436383A3C3E40424446484A4C4E5052F6
:100ECC005456585A5C5E60626466686A6C6E7072E6
:100EDC007476787A7C7E80828486888A8C8E9092D6
:100EEC009496989A9C9EA0A2A4A6A8AAACAEB0B2C6
:100EFC00B4B6B8BABCBEC0C2C4C6C8CACCCED0D2B6
:100F0C00D4D6D8DADCDEE0E2E4E6E8EAECEEF0F2A5
:100F1C00F4F6F8FAFCFEFEFCFAF8F6F4F2F0EEEC5D
:100F2C00EAE8E6E4E2E0DEDCDAD8D6D4D2D0CECC05
:100F3C00CAC8C6C4C2C0BEBCBAB8B6B4B2B0AEACF5
:100F4C00AAA8A6A4A2A09E9C9A98969492908E8CE5
:100F5C008A88868482807E7C7A78767472706E6CD5
:100F6C006A68666462605E5C5A58565452504E4CC5
:100F7C004A48464442403E3C3A38363432302E2CB5
:100F8C002A28262422201E1C1A18161412100E0CA5
:100F9C000A08060402000102030405060708090AF0
:100FAC000B0C0D0E0F101112131415161718191A0D
:100FBC001B1C1D1E1F202122232425262728292AFD
:100FCC002B2C2D2E2F303132333435363738393AED
:100FDC003B3C3D3E3F404142434445464748494ADD
:100FEC004B4C4D4E4F505152535455565758595ACD
:100FFC005B5C5D5E5F606162636465666768696ABD
:10100C006B6C6D6E6F707172737475767778797AAC
:10101C007B7C7D7E7F8080818283848586878889A6
:10102C008A8B8C8D8E8F909192939495969798999C
:10103C009A9B9C9D9E9FA0A1A2A3A4A5A6A7A8A98C
:10104C00AAABACADAEAFB0B1B2B3B4B5B6B7B8B97C
:10105C00BABBBCBDBEBFC0C1C2C3C4C5C6C7C8C96C
:10106C00CACBCCCDCECFD0D1D2D3D4D5D6D7D8D95C
:10107C00DADBDCDDDEDFE0E1E2E3E4E5E6E7E8E94C
:10108C00EAEBECEDEEEFF0F1F2F3F4F5F6F7F8F93C
:10109C00FAFBFCFDFEFF808386898C909396999CCD
:1010AC009FA2A5A8ABAEB1B4B6B9BCBFC2C4C7C9E8
:1010BC00CCCED1D3D6D8DADCDEE0E2E4E6E8EAEC5A
:1010CC00EDEFF0F2F3F4F6F7F8F9FAFBFBFCFDFDAB
:1010DC00FEFEFEFFFFFFFFFFFFFFFEFEFDFDFCFC23
:1010EC00FBFAF9F8F7F6F5F4F2F1F0EEECEBE9E7D0
:1010FC00E5E3E1DFDDDBD9D7D4D2D0CDCBC8C5C396
:10110C00C0BDBBB8B5B2AFACA9A7A4A09D9A97942B
:10111C00918E8B8885827E7B7875726F6C69666325
:10112C00605C595754514E4B484543403D3B383514
:10113C0033302E2C29272523211F1D1B191715147D
:10114C0012100F0E0C0B0A09080706050404030302
:10115C000202010101010101010202020303040563
:10116C0005060708090A0C0D0E1011131416181A8F
:10117C001C1E20222426282A2D2F323437393C3E9F
:10118C004144474A4C4F5255585B5E6164676A6DE7
:10119C007074777A7D80FEFEFEFEFEFEFEFEFEFE85
:1011AC00FEFEFEFEFEFEFEFEFEFEFEFEFEFEFEFE53
:1011BC00FEFEFEFEFEFEFEFEFEFEFEFEFEFEFEFE43
:1011CC00FEFEFEFEFEFEFEFEFEFEFEFEFEFEFEFE33
:1011DC00FEFEFEFEFEFEFEFEFEFEFEFEFEFEFEFE23
:1011EC00FEFEFEFEFEFEFEFEFEFEFEFEFEFEFEFE13
:1011FC00FEFEFEFEFEFEFEFEFEFEFEFEFEFEFEFE03
:10120C00FEFEFEFEFEFEFEFEFEFEFEFEFEFEFEFEF2
:10121C00FEFEFEFEFEFE00000000000000000000CE
:10122C0000000000000000000000000000000000B2
:10123C0000000000000000000000000000000000A2
:10124C000000000000000000000000000000000092
:10125C000000000000000000000000000000000082
:10126C000000000000000000000000000000000072
:10127C000000000000000000000000000000000062
:10128C000000000000000000000000000000000052
:06129C000000000000004C
:00000001FF
