:100000000C9446000C9465000C9465000C946500FB
:100010000C9465000C9465000C9465000C946500CC
:100020000C9465000C9465000C9465000C946500BC
:100030000C9465000C948F010C9465000C94650081
:100040000C94C9010C9465000C9465000C94650037
:100050000C9465000C9465000C9465000C9465008C
:100060000C9465000C9465000C9465000C9465007C
:100070000C9465000C9465000C9465000C9465006C
:100080000C9465000C9465000C94650011241FBE4F
:10009000CFEFD0E4DEBFCDBF13E0A0E0B1E0E4E0FD
:1000A000F6E000E00BBF02C007900D92A833B10745
:1000B000D9F723E0A8E3B3E001C01D92A135B20750
:1000C000E1F70E94C4020C9400030C940000249AEF
:1000D000209A26982C9828980895CF93289840E144
:1000E0004A95F1F700C0289AE82FF92F72E0C7E08F
:1000F000B0E0A0E017C043B146FB222720F930E072
:10010000A901082E02C0440F551F0A94E2F7642B80
:100110002C9A00C000C000002C98019760F76193F2
:10012000715021F08C2F9B2F6A2FE5CFCF9108952E
:100130005898813011F45C9A0EC05C980CC066230C
:1001400014F45D9A01C05D985F98660F5F9A8150C4
:10015000B1F7589A089588E0F2CF1F93CF93DF93B9
:10016000C82FD0E0A097CE01880F991FC80FD91FC4
:10017000CC0FDD1FC15FDE4F10E0699181E00E946E
:1001800098001F5F1630C9F7DF91CF911F91089536
:10019000CF93DF93FA018081882339F0EA01219619
:1001A0000E94AD0089918111FBCFDF91CF9108951D
:1001B000CF93DF93C8EFD1E060E081E00E94980028
:1001C00021972097C9F7DF91CF9108958FEF8AB9D2
:1001D00059982FEF80E792E0215080409040E1F75E
:1001E00000C00000599A58988FE097E20197F1F704
:1001F00000C0000059980000599A599892E09A95C9
:10020000F1F700C0599A589822E02A95F1F700C0FA
:10021000589A82E08A95F1F700C0599A61E280E02D
:100220000E94980061EC80E00E94980066E080E007
:100230000E94980063E180E00E94980060E280E004
:100240000E9498000E94D8006CE080E00E94980014
:1002500058980895809141039091420380FF04C013
:1002600021E02093480302C01092480381FF04C09C
:1002700021E02093470302C01092470382FF04C08D
:1002800021E02093460302C01092460383FF04C07E
:1002900021E02093450302C01092450390FF04C063
:1002A00021E02093500302C01092500391FF04C03C
:1002B00021E020934F0302C010924F0392FF04C02D
:1002C00021E020934E0302C010924E0393FF04C01E
:1002D00021E020934D0302C010924D0394FF04C00F
:1002E00021E020934C0302C010924C0395FF04C000
:1002F00021E020934B0302C010924B0396FF04C0F1
:1003000021E020934A0302C010924A03992324F467
:1003100081E08093490308951092490308951F9244
:100320000F920FB60F9211240BB60F922F933F939B
:100330004F935F936F937F938F939F93AF93BF93ED
:10034000EF93FF936AEA81E00E9498006BEA81E0F4
:100350000E94980060E181E00E94980064E181E0E1
:100360000E94980063E081E00E949800FF91EF9165
:10037000BF91AF919F918F917F916F915F914F91BD
:100380003F912F910F900BBE0F900FBE0F901F90BB
:1003900018951F920F920FB60F9211240BB60F9261
:1003A0008F939F93EF93FF93809138038C5F80939B
:1003B000380390914503992359F0E0913903F09166
:1003C0003A03E80FF11D808188B980EF87BDA6C090
:1003D00090914603992359F0E0913903F0913A0343
:1003E000E80FF11D808188B982EE87BD97C090919A
:1003F0004703992359F0E0913903F0913A03E80F4C
:10040000F11D808188B986ED87BD88C09091480331
:10041000992359F0E0913903F0913A03E80FF11D67
:10042000808188B98AEC87BD79C09091490399236E
:1004300059F0E0913903F0913A03E80FF11D808102
:1004400088B98EEB87BD6AC090914A03992359F011
:10045000E0913903F0913A03E80FF11D808188B9EA
:1004600084EB87BD5BC090914B03992359F0E091D9
:100470003903F0913A03E80FF11D808188B98AEAC7
:1004800087BD4CC090914C03992359F0E0913903FA
:10049000F0913A03E80FF11D808188B980EA87BDA9
:1004A0003DC090914D03992359F0E0913903F091AB
:1004B0003A03E80FF11D808188B987E987BD2EC016
:1004C00090914E03992359F0E0913903F0913A034A
:1004D000E80FF11D808188B98FE887BD1FC090911A
:1004E0004F03992359F0E0913903F0913A03E80F53
:1004F000F11D808188B987E887BD10C090915003B5
:10050000992359F0E0913903F0913A03E80FF11D76
:10051000808188B98FE787BD01C018B8FF91EF913E
:100520009F918F910F900BBE0F900FBE0F901F9059
:10053000189510928000E1E8F0E01082109282009D
:10054000109285001092840080818961808384E606
:1005500090E0909389008093880080E090EF9093E2
:1005600087008093860082E080936F00089514BC1A
:1005700015BC16BC84B5836084BD85B5896085BD16
:1005800082E080936E0008950E9467000E94E6005A
:100590000E94D80040E051E060E080E00E94C80086
:1005A00040E051E060E080E00E94C80040E051E09F
:1005B00060E080E00E94C80040E051E060E080E040
:1005C0000E94C80040E051E060E080E00E94C80066
:1005D00040E051E060E080E00E94C80040E051E06F
:1005E00060E080E00E94C8000E9499020E94B70269
:1005F00078940E942A0181E493E00E946D00F9CF73
:04060000F894FFCF9C
:100604004572696B203C33204B6C617261210000A0
:1006140000000000000000002F0000000007000799
:100624000000147F147F1400242A7F2A12006264BD
:10063400081323003649552250000005030000002A
:10064400001C224100000041221C000014083E0846
:10065400140008083E0808000000A0600000080814
:100664000808080000606000000020100804020070
:100674003E5149453E0000427F40000042615149DD
:1006840046002141454B31001814127F10002745C4
:10069400454539003C4A49493000017109050300C8
:1006A400364949493600064949291E0000363600B4
:1006B4000000005636000000081422410000141403
:1006C4001414140000412214080002015109060008
:1006D400324959513E007C1211127C007F4949492C
:1006E40036003E41414122007F4141221C007F49A6
:1006F400494941007F09090901003E4149497A00FD
:100704007F0808087F0000417F4100002040413FEE
:1007140001007F08142241007F40404040007F02D6
:100724000C027F007F0408107F003E4141413E00DF
:100734007F09090906003E4151215E007F091929FC
:10074400460046494949310001017F0101003F400B
:1007540040403F001F2040201F003F4038403F00E2
:1007640063140814630007087008070061514945C1
:100774004300007F41410000552A552A550000419D
:10078400417F000004020102040040404040400058
:100794000001020400002054545478007F4844446B
:1007A4003800384444442000384444487F003854D6
:1007B40054541800087E0901020018A4A4A47C0063
:1007C4007F080404780000447D4000004080847D5C
:1007D40000007F102844000000417F4000007C049A
:1007E400180478007C080404780038444444380031
:1007F400FC242424180018242418FC007C08040475
:100804000800485454542000043F444020003C4015
:1008140040207C001C2040201C003C4030403C0018
:100824004428102844001CA0A0A07C004464544C1C
:08083400441414141414140000
:00000001FF
