S01200006F7574707574746573742E73726563A1
S11300000C9446000C9465000C9465000C946500F7
S11300100C9465000C9465000C9465000C946500C8
S11300200C9465000C9465000C9465000C946500B8
S11300300C9465000C9465000C9465000C946500A8
S11300400C9498000C9465000C9465000C94650065
S11300500C9465000C9465000C9465000C94650088
S11300600C9465000C9465000C9465000C94650078
S11300700C9465000C9465000C9465000C94650068
S11300800C9465000C9465000C94650011241FBE4B
S1130090CFEFD0E4DEBFCDBF12E0A0E0B1E0E4EBEF
S11300A0F1E000E00BBF02C007900D92A230B1074F
S11300B0D9F722E0A2E0B2E001C01D92A931B20753
S11300C0E1F70E94BA000C94D8000C940000249A22
S11300D0209A26982C9828980895CF93289840E140
S11300E04A95F1F700C0289AE82FF92F72E0C7E08B
S11300F0B0E0A0E017C043B146FB222720F930E06E
S1130100A901082E02C0440F551F0A94E2F7642B7C
S11301102C9A00C000C000002C98019760F76193EE
S1130120715021F08C2F9B2F6A2FE5CFCF9108952A
S11301301F920F920FB60F9211240BB60F928F934A
S1130140EF93FF93E091000180911802E80FE09390
S11301501802F0E0EF5FFE4F808188B98FE087BD21
S1130160FF91EF918F910F900BBE0F900FBE0F90E8
S11301701F9018950E9467008FEF87B988B99AB1CC
S11301808AB98BB914BC15BC16BC84E687BD84B58A
S1130190826084BD85B5816085BD82E080936E00F8
S11301A010921802789488E092E00E946D00FBCFD0
S10701B0F894FFCFED
S11301B401808386898C909396999C9FA2A5A8AB71
S11301C4AEB1B4B6B9BCBFC2C4C7C9CCCED1D3D600
S11301D4D8DADCDEE0E2E4E6E8EAECEDEFF0F2F3B0
S11301E4F4F6F7F8F9FAFBFBFCFDFDFEFEFEFFFF57
S11301F4FFFFFFFFFFFEFEFDFDFCFCFBFAF9F8F731
S1130204F6F5F4F2F1F0EEECEBE9E7E5E3E1DFDD3A
S1130214DBD9D7D4D2D0CDCBC8C5C3C0BDBBB8B548
S1130224B2AFACA9A7A4A09D9A9794918E8B88850C
S1130234827E7B7875726F6C696663605C5957540F
S1130244514E4B484543403D3B383533302E2C29E1
S1130254272523211F1D1B1917151412100F0E0C0B
S11302640B0A090807060504040303020201010139
S1130274010101010202020303040505060708093A
S11302840A0C0D0E1011131416181A1C1E20222405
S113029426282A2D2F323437393C3E4144474A4CD0
S11302A44F5255585B5E6164676A6D7074777A7DEA
S10502B48000C4
S9030000FC
