S01200006F7574707574746573742E73726563A1
S11300000C9446000C9465000C9465000C946500F7
S11300100C9465000C9465000C9465000C946500C8
S11300200C9465000C942A020C9465000C946500F1
S11300300C9465000C9450020C9465000C946500BB
S11300400C9478020C9465000C9465000C94650083
S11300500C9465000C9465000C9465000C94650088
S11300600C940D020C9465000C9465000C946500CE
S11300700C9465000C9465000C9465000C94650068
S11300800C9465000C9465000C94650011241FBE4B
S1130090CFEFD0E4DEBFCDBF14E0A0E0B1E0EAE2F0
S11300A0F8E000E00BBF02C007900D92A833B1073F
S11300B0D9F727E0A8E3B4E001C01D92AF36B20738
S11300C0E1F70E94D0030C9413040C940000249ACA
S11300D0209A26982C9828980895CF93289840E140
S11300E04A95F1F700C0289AE82FF92F72E0C7E08B
S11300F0B0E0A0E017C043B146FB222720F930E06E
S1130100A901082E02C0440F551F0A94E2F7642B7C
S11301102C9A00C000C000002C98019760F76193EE
S1130120715021F08C2F9B2F6A2FE5CFCF9108952A
S11301305C98589898E0882314F45F9A01C05F98FB
S11301405D98880F5D9A9150B1F75C9A089590E09C
S1130150FC01EE0FFF1F8E0F9F1FFC01EE0FFF1F10
S113016084E5689FE00DF11D1124A42FB0E0909761
S1130170CD01880F991FA80FB91FAA0FBB1FAF5F2E
S1130180BD4FEE5AFB4F80E0222321F09C919095C5
S1130190908302C09C9190838F5F11963196863034
S11301A099F70895BF92CF92DF92EF92FF920F9347
S11301B01F93CF93DF93EA0148814423C9F021962A
S11301C090E0C22ED12CE62EF12C082F10E0BB2497
S11301D0B394B90E50E09601B701F801E90FF11D8F
S11301E0CF010E94A7004991442311F09B2DEFCF2A
S11301F0DF91CF911F910F91FF90EF90DF90CF90FF
S1130200BF9008955C98589AA2E5B4E08AE496E019
S113021048E012C03C91332314F45F9A01C05F9804
S11302205D983081330F308300005D9A215091F73F
S11302301196A817B90719F0242FFD01EBCF5C9A8A
S11302400895E2E5F4E08AE496E02FEF2193E817BD
S1130250F907E1F70895E2E5F4E08AE496E0119203
S1130260E817F907E1F708950E942B010E940201A3
S113027008958FEF8AB95A9887EA91E60197F1F7C2
S113028000C000005A9A5C9881EE94E00197F1F75F
S113029000C000005A9800005A9A5A9800005A9ACE
S11302A05C9800005C9A00005A9A81E290E00E94F7
S11302B0980081EC90E00E94980086E090E00E9413
S11302C0980083E190E00E94980080E290E00E9410
S11302D098000E9434018CE090E00E9498005C98A1
S11302E00895F89480931700609316007E03789421
S11302F08091010008958823C9F070E0FB01EB5B55
S1130300FB4F80818F5F8083853108F1FB01E45BC3
S1130310F94F8081811105C081E0FB01E45BF94F55
S11303208083FB01EB5BFB4F1082089570E0FB01BF
S1130330E75CFB4F80818F5F8083853140F0FB0158
S1130340E45BF94F1082FB01E75CFB4F10820895D8
S113035080915F069091600680FF04C021E02093A5
S1130360660602C01092660681FF04C021E0209355
S1130370650602C01092650682FF04C021E0209346
S1130380640602C01092640683FF04C021E0209337
S1130390630602C01092630690FF04C021E020931C
S11303A06E0602C010926E0691FF04C021E02093F5
S11303B06D0602C010926D0692FF04C021E02093E6
S11303C06C0602C010926C0693FF04C021E02093D7
S11303D06B0602C010926B0694FF04C021E02093C8
S11303E06A0602C010926A0695FF04C021E02093B9
S11303F0690602C01092690696FF04C021E02093AA
S1130400680602C010926806992324F481E0809360
S1130410670608951092670608951F920F920FB60B
S11304200F9211240BB60F928F93EF93FF93809149
S1130430790080935A06EAE7F0E080818064808343
S1130440FF91EF918F910F900BBE0F900FBE0F9005
S11304501F9018951F920F920FB60F9211248F932D
S113046080914E06882381F080913804853E18F4EB
S11304708F5F8093380480913804809300010AC010
S113048081508093000106C01092380480910001CD
S11304908111F6CF8F910F900FBE0F901F9018957A
S11304A01F920F920FB60F9211240BB60F922F9337
S11304B03F934F935F936F937F938F939F93AF93E8
S11304C0BF93EF93FF930E94A801FF91EF91BF9117
S11304D0AF919F918F917F916F915F914F913F91D8
S11304E02F910F900BBE0F900FBE0F901F90189579
S11304F01F920F920FB60F9211240BB60F922F93E7
S11305003F934F935F936F937F938F939F93AF9397
S1130510BF93EF93FF93909151049E5F9093510486
S113052080914E06811111C080910001833058F0F2
S1130530E0914A06F0914B06E90FF11D6081869522
S11305400E94710188B986ED87BD80914C0688238D
S113055069F080915104E0914A06F0914B06E80F4E
S1130560F11D808188B980EF87BDC1C080914D069F
S1130570882369F080915104E0914A06F0914B067A
S1130580E80FF11D808188B982EE87BDB0C08091EB
S11305904E06882391F080915104E0914A06F0912F
S11305A04B06E80FF11D80913804608186950E9406
S11305B0710188B986ED87BD9AC080914F06882362
S11305C069F080915104E0914A06F0914B06E80FDE
S11305D0F11D808188B98AEC87BD89C0809150065D
S11305E0882369F080915104E0914A06F0914B060A
S11305F0E80FF11D808188B98EEB87BD78C08091AA
S11306005106882369F080915104E0914A06F091E3
S11306104B06E80FF11D808188B984EB87BD67C064
S113062080915206882369F080915104E0914A0632
S1130630F0914B06E80FF11D808188B98AEA87BDE5
S113064056C080915306882369F080915104E0914B
S11306504A06F0914B06E80FF11D808188B980EAC3
S113066087BD45C080915406882369F08091510468
S1130670E0914A06F0914B06E80FF11D808188B99C
S113068087E987BD34C080915506882369F080913D
S11306905104E0914A06F0914B06E80FF11D808168
S11306A088B98FE887BD23C080915606882369F0F6
S11306B080915104E0914A06F0914B06E80FF11D38
S11306C0808188B987E887BD12C080915706882346
S11306D069F080915104E0914A06F0914B06E80FCD
S11306E0F11D808188B98FE787BD01C018B8FF91DB
S11306F0EF91BF91AF919F918F917F916F915F9196
S11307004F913F912F910F900BBE0F900FBE0F9002
S11307101F901895A0E8B0E01C92E1E8F0E0108288
S11307201092820010928500109284008C91826055
S11307308C9380818D61808384E690E09093870020
S11307408093860082E390E09093890080938800F0
S113075082E080936F000895A0EBB0E01C92E1EB7F
S1130760F0E010821092B20088EC8093B3008C9178
S113077083608C9380818D60808382E0809370009D
S1130780089514BC15BC16BC88EC87BD84B5836081
S113079084BD85B5896085BD82E080936E0008952F
S11307A078940E94670081E091E090934B068093D7
S11307B04A068FEF87B90E9439010E9434010E94D2
S11307C0210121E049E254E060E080E00E94D2008F
S11307D021E049E254E063E081E00E94D2000E94FB
S11307E002010E948A030E94C1030E94AC030E947A
S11307F02B0103E616E00F2EFFE6EF2EF6E0FF2EA8
S1130800F02D8FE596E00E946D008AE18A95F1F75C
S113081000C0E8016C2F601B89910E947B01CE15FA
S10D0820DF05C1F7EECFF894FFCF17
S113082AFF0102030405060708090A0B0C0D0E0F43
S113083A101112131415161718191A1B1C1D1E1F32
S113084A202122232425262728292A2B2C2D2E2F22
S113085A303132333435363738393A3B3C3D3E3F12
S113086A404142434445464748494A4B4C4D4E4F02
S113087A505152535455565758595A5B5C5D5E5FF2
S113088A606162636465666768696A6B6C6D6E6FE2
S113089A707172737475767778797A7B7C7D7E7FD2
S11308AA80808182838485868788898A8B8C8D8ED1
S11308BA8F909192939495969798999A9B9C9D9EC2
S11308CA9FA0A1A2A3A4A5A6A7A8A9AAABACADAEB2
S11308DAAFB0B1B2B3B4B5B6B7B8B9BABBBCBDBEA2
S11308EABFC0C1C2C3C4C5C6C7C8C9CACBCCCDCE92
S11308FACFD0D1D2D3D4D5D6D7D8D9DADBDCDDDE82
S113090ADFE0E1E2E3E4E5E6E7E8E9EAEBECEDEE71
S113091AEFF0F1F2F3F4F5F6F7F8F9FAFBFCFDFE61
S113092AFF0000000000000000002F000000000784
S113093A00070000147F147F1400242A7F2A12005F
S113094A6264081323003649552250000005030047
S113095A0000001C224100000041221C000014086F
S113096A3E08140008083E0808000000A0600000C1
S113097A0808080808000060600000002010080445
S113098A02003E5149453E0000427F400000426158
S113099A514946002141454B31001814127F100079
S11309AA2745454539003C4A494930000171090542
S11309BA0300364949493600064949291E000036CA
S11309CA36000000005636000000081422410000D8
S11309DA14141414140000412214080002015109C9
S11309EA0600324959513E007C1211127C007F499B
S11309FA494936003E41414122007F4141221C00BF
S1130A0A7F49494941007F09090901003E41494991
S1130A1A7A007F0808087F0000417F4100002040D7
S1130A2A413F01007F08142241007F4040404000BA
S1130A3A7F020C027F007F0408107F003E4141417F
S1130A4A3E007F09090906003E4151215E007F09E3
S1130A5A1929460046494949310001017F0101002B
S1130A6A3F4040403F001F2040201F003F40384085
S1130A7A3F006314081463000708700807006151F3
S1130A8A49454300007F41410000552A552A550033
S1130A9A0041417F0000040201020400404040403A
S1130AAA40000001020400002054545478007F4896
S1130ABA44443800384444442000384444487F00BD
S1130ACA385454541800087E0901020018A4A4A436
S1130ADA7C007F080404780000447D4000004080C4
S1130AEA847D00007F102844000000417F400000FC
S1130AFA7C04180478007C080404780038444444CC
S1130B0A3800FC242424180018242418FC007C0827
S1130B1A04040800485454542000043F444020006C
S1130B2A3C4040207C001C2040201C003C403040BB
S1130B3A3C004428102844001CA0A0A07C00446463
S1130B4A544C441414141414144572696B203C3321
S10B0B5A204B6C617261210063
S9030000FC
