S01200006F7574707574746573742E73726563A1
S11300000C9446000C9465000C9465000C946500F7
S11300100C9465000C9465000C9465000C946500C8
S11300200C9465000C9451010C9465000C946500CB
S11300300C9465000C9477010C9465000C94650095
S11300400C949F010C9465000C9465000C9465005D
S11300500C9465000C9465000C9465000C94650088
S11300600C9434010C9465000C9465000C946500A8
S11300700C9465000C9465000C9465000C94650068
S11300800C9465000C9465000C94650011241FBE4B
S1130090CFEFD0E4DEBFCDBF12E0A0E0B1E0E8E5F1
S11300A0F6E000E00BBF02C007900D92A230B1074A
S11300B0D9F725E0A2E0B2E001C01D92A933B2074E
S11300C0E1F70E94FF020C942A030C940000249A86
S11300D0209A26982C9828980895CF93289840E140
S11300E04A95F1F700C0289AE82FF92F72E0C7E08B
S11300F0B0E0A0E017C043B146FB222720F930E06E
S1130100A901082E02C0440F551F0A94E2F7642B7C
S11301102C9A00C000C000002C98019760F76193EE
S1130120715021F08C2F9B2F6A2FE5CFCF9108952A
S1130130F89480931700609316007E03789480915E
S1130140010008958823C9F070E0FB01E15FFD4FD1
S113015080818F5F8083853108F1FB01E25EFD4F72
S11301608081811105C081E0FB01E25EFD4F808347
S1130170FB01E15FFD4F1082089570E0FB01ED5F2C
S1130180FD4F80818F5F8083853140F0FB01E25E0B
S1130190FD4F1082FB01ED5FFD4F108208958091A9
S11301A0290490912A0480FF04C021E020933004A4
S11301B002C01092300481FF04C021E020932F0478
S11301C002C010922F0482FF04C021E020932E0469
S11301D002C010922E0483FF04C021E020932D045A
S11301E002C010922D0490FF04C021E02093380433
S11301F002C01092380491FF04C021E02093370418
S113020002C01092370492FF04C021E02093360408
S113021002C01092360493FF04C021E020933504F9
S113022002C01092350494FF04C021E020933404EA
S113023002C01092340495FF04C021E020933304DB
S113024002C01092330496FF04C021E020933204CC
S113025002C010923204992324F481E08093310483
S113026008951092310408951F920F920FB60F92C1
S113027011240BB60F928F93EF93FF938091790023
S113028080932404EAE7F0E0808180648083FF9116
S1130290EF918F910F900BBE0F900FBE0F901F9098
S11302A018951F920F920FB60F9211248F9380917D
S11302B02002882381F080910202853E18F48F5F2A
S11302C08093020280910202809300010AC081504F
S11302D08093000106C010920202809100018111F6
S11302E0F6CF8F910F900FBE0F901F9018951F920D
S11302F00F920FB60F9211240BB60F922F933F93C8
S11303004F935F936F937F938F939F93AF93BF9319
S1130310EF93FF930E94CF00FF91EF91BF91AF91B4
S11303209F918F917F916F915F914F913F912F9109
S11303300F900BBE0F900FBE0F901F9018951F9239
S11303400F920FB60F9211240BB60F922F933F9377
S11303504F935F936F937F938F939F93AF93BF93C9
S1130360EF93FF9390911B029E5F90931B028091E9
S11303702002811111C080910001833058F0E09176
S11303801C02F0911D02E90FF11D608186950E9407
S1130390980088B986ED87BD80911E02882369F094
S11303A080911B02E0911C02F0911D02E80FF11DE7
S11303B0808188B980EF87BDC9C080911F028823DE
S11303C069F080911B02E0911C02F0911D02E80F7C
S11303D0F11D808188B982EE87BDB8C0809120026A
S11303E0882391F080911B02E0911C02F0911D0280
S11303F0E80FF11D80910202608186950E949800A9
S113040088B986ED87BDA2C080912102882369F056
S113041080911B02E0911C02F0911D02E80FF11D76
S1130420808188B98AEC87BD91C08091220288239B
S1130430A9F080911B02E0911C02F0911D02E80FCB
S1130440F11D808120E2829FC0011124880F892F31
S1130450881F990B88B98EEB87BD78C080912302E1
S1130460882369F080911B02E0911C02F0911D0227
S1130470E80FF11D808188B984EB87BD67C0809146
S11304802402882369F080911B02E0911C02F09100
S11304901D02E80FF11D808188B98AEA87BD56C024
S11304A080912502882369F080911B02E0911C024F
S11304B0F0911D02E80FF11D808188B980EA87BDA3
S11304C045C080912602882369F080911B02E09147
S11304D01C02F0911D02E80FF11D808188B987E9A3
S11304E087BD34C080912702882369F080911B0264
S11304F0E0911C02F0911D02E80FF11D808188B982
S11305008FE887BD23C080912802882369F08091F9
S11305101B02E0911C02F0911D02E80FF11D808185
S113052088B987E887BD12C080912902882369F0C1
S113053080911B02E0911C02F0911D02E80FF11D55
S1130540808188B98FE787BD01C018B8FF91EF910A
S1130550BF91AF919F918F917F916F915F914F91D7
S11305603F912F910F900BBE0F900FBE0F901F90D5
S11305701895A0E8B0E01C92E1E8F0E01082109237
S1130580820010928500109284008C9182608C937A
S113059080818D61808384E690E0909387008093CE
S11305A0860082E390E0909389008093880082E043
S11305B080936F000895A0EBB0E01C92E1EBF0E0B3
S11305C010821092B20088EC8093B3008C91836007
S11305D08C9380818D60808382E080937000089585
S11305E014BC15BC16BC88EC87BD84B5836084BD7F
S11305F085B5896085BD82E080936E000895789406
S11306000E94670081E091E090931D0280931C0298
S11306108FEF87B90E94B9020E94F0020E94DB02A8
S11306200DE214E00F2EF9E3EF2EF4E0FF2EF02D8F
S113063089E294E00E946D008AE18A95F1F700C096
S1130640E8016C2F601B89910E94A200CE15DF0582
S10B0650C1F7EECFF894FFCFCF
S1130658FF808386898C909396999C9FA2A5A8ABCA
S1130668AEB1B4B6B9BCBFC2C4C7C9CCCED1D3D657
S1130678D8DADCDEE0E2E4E6E8EAECEDEFF0F2F307
S1130688F4F6F7F8F9FAFBFBFCFDFDFEFEFEFFFFAE
S1130698FFFFFFFFFFFEFEFDFDFCFCFBFAF9F8F788
S11306A8F6F5F4F2F1F0EEECEBE9E7E5E3E1DFDD92
S11306B8DBD9D7D4D2D0CDCBC8C5C3C0BDBBB8B5A0
S11306C8B2AFACA9A7A4A09D9A9794918E8B888564
S11306D8827E7B7875726F6C696663605C59575467
S11306E8514E4B484543403D3B383533302E2C2939
S11306F8272523211F1D1B1917151412100F0E0C63
S11307080B0A090807060504040303020201010190
S11307180101010102020203030405050607080991
S11307280A0C0D0E1011131416181A1C1E2022245C
S113073826282A2D2F323437393C3E4144474A4C27
S11307484F5255585B5E6164676A6D7074777A7D41
S105075880001B
S9030000FC
