:100000000C9446000C9465000C9465000C946500FB
:100010000C9465000C9465000C9465000C946500CC
:100020000C9465000C94E7040C9465000C94650036
:100030000C9465000C944D050C9465000C946500BF
:100040000C9475050C9465000C9465000C94650087
:100050000C9465000C9465000C9465000C9465008C
:100060000C9465000C9465000C9465000C9465007C
:100070000C9465000C9465000C9465000C9465006C
:100080000C9465000C9465000C94650011241FBE4F
:10009000CFEFD0E4DEBFCDBF16E0A0E0B1E0EAEAEA
:1000A000FCE000E00BBF02C007900D92A63AB1073A
:1000B000D9F72BE0A6EAB6E001C01D92AE30B20738
:1000C000E1F70E94DA050C9453060C940000249A80
:1000D000209A26982C9828980895CF93289840E144
:1000E0004A95F1F700C0289AE82FF92F72E0C7E08F
:1000F000B0E0A0E017C043B146FB222720F930E072
:10010000A901082E02C0440F551F0A94E2F7642B80
:100110002C9A00C000C000002C98019760F76193F2
:10012000715021F08C2F9B2F6A2FE5CFCF9108952E
:1001300085ED97E09093EF098093EE09089584EDA3
:1001400097E09093EF098093EE09089583ED97E08F
:100150009093EF098093EE09089582ED97E09093D4
:10016000EF098093EE0908958091D5070895809155
:10017000D207089556982198229823985E9A85B1BF
:100180008E6085B908958091D807882349F0E09161
:10019000F009F091F1098281833010F48F5F82833E
:1001A0008091D707882349F0E091F009F091F10997
:1001B0008281882311F0815082838091D90788231E
:1001C000F1F0E091F009F091F109A281B0E0AA0FFD
:1001D000BB1FAE0FBF1F19960D90BC91A02D569658
:1001E000FC93EE935597828190E0880F991FE80F5A
:1001F000F91F818592859093F1098093F009E09130
:10020000F009F091F109828190E0880F991FE80FC1
:10021000F91F0184F285E02D0580F681E02D3097ED
:1002200009F009958091D607882351F0E091F009F3
:10023000F091F109858996899093F1098093F009ED
:100240000895EF92FF920F931F93CF93DF930F2E9A
:10025000F6EAEF2EF6E0FF2EF02D81E094E0D701D4
:100260008D939C934DEB56E089E094E0EA019983ED
:100270008883A2E0B7E0B093C706A093C606EBEE72
:10028000F6E0F093C906E093C8068DE094E011967D
:100290009C938E9328E930E030930807209307075A
:1002A00086E194E09183808309E117E08CE194E09A
:1002B000E80199838883B0932307A0932207F093E2
:1002C0002507E093240764ED76E089E294E0EB01F2
:1002D00099838883B093DE06A093DD06F093E00651
:1002E000E093DF0680E397E0E6E3F4E0DC01ED93E2
:1002F000FC9310933A070093390770933C0760937F
:100300003B0750933E0740933D076AEB77E042E49A
:1003100054E0EB01598348833093C0072093BF0713
:1003200043EA57E029E434E0FA01318320832FE9DE
:1003300030E03093A9072093A8072CE837E0EFE4DA
:10034000F4E0D901ED93FC93E6EAF0E0F093920734
:10035000E0939107E5E7F7E0A7E5B4E0B183A08378
:10036000ADEAB0E0B0937B07A0937A07AEE5B7E0C3
:100370000FE514E011961C930E9370936807609339
:10038000670750936A074093690730936C0720937F
:100390006B07F0936E07E0936D07E7E4F7E01182D7
:1003A0001082F0935D07E0935C0790935107809370
:1003B0005007B0935307A0935207F0925507E0926D
:1003C0005407F093F109E093F009DF91CF911F9169
:1003D0000F91FF90EF9008954E9B03C01092D607A7
:1003E00003C081E08093D607199B03C01092D70702
:1003F00003C081E08093D7071A9B03C01092D807EF
:1004000003C081E08093D8071B9B03C01092D907DB
:10041000089581E08093D90708955C98589898E0F2
:10042000882314F45F9A01C05F985D98880F5D9AE5
:100430009150B1F75C9A089590E0FC01EE0FFF1F18
:100440008E0F9F1FFC01EE0FFF1F84E5689FE00DDC
:10045000F11D1124A42FB0E09097CD01880F991FB2
:10046000A80FB91FAA0FBB1FA358BB4FEA50F84FE4
:1004700080E0222321F09C919095908302C09C9172
:1004800090838F5F11963196863099F70895BF92C9
:10049000CF92DF92EF92FF920F931F93CF93DF9350
:1004A000EA0148814423C9F0219690E0C22ED12C64
:1004B000E62EF12C082F10E0BB24B394B90E50E0C7
:1004C0009601B701F801E90FF11DCF010E941C024E
:1004D0004991442311F09B2DEFCFDF91CF911F91D4
:1004E0000F91FF90EF90DF90CF90BF9008955C98B0
:1004F000589AA6EFB7E08EEE99E048E012C03C9122
:10050000332314F45F9A01C05F985D983081330FF4
:10051000308300005D9A215091F71196A817B90712
:1005200019F0242FFD01EBCF5C9A0895E6EFF7E078
:100530008EEE99E01192E817F907E1F708950E940D
:1005400096020E94770208958FEF8AB95A9887EA37
:1005500091E60197F1F700C000005A9A5C9881EE8D
:1005600094E00197F1F700C000005A9800005A9AF1
:100570005A9800005A9A5C9800005C9A00005A9AB7
:1005800081E290E00E940D0281EC90E00E940D0259
:1005900086E090E00E940D0283E190E00E940D024F
:1005A00080E290E00E940D020E949F028CE090E0A9
:1005B0000E940D025C98089524E5829FC0011124D9
:1005C000FC01EA50F84F80E09081909591938F5F05
:1005D0008435D1F70895FF920F931F93CF93DF9344
:1005E00000D000D0CDB7DEB7EAE7F0E08081A0917F
:1005F000EE09B091EF098C918093D1078091790039
:100600008C938081806480834AE050E0BE016F5FFC
:100610007F4F8EEE99E00E941306E091F009F09171
:10062000F1090184F285E02D309709F42AC100E038
:1006300010E0F12C4081518120E06F2D80E00E947C
:100640004702E091F009F091F10982818F1102C017
:100650000E94DC02E091F009F091F109C801880FD5
:10066000991FE80FF91F0184F285E02D0380F481C2
:10067000E02D309789F080814AE050E0BE016F5F45
:100680007F4F90E00E94130620E0AE014F5F5F4F66
:100690006F2D8BE00E944702E091F009F091F10983
:1006A000C801880F991FE80FF91F0184F285E02D1A
:1006B000858196818859904041F56091D50770E019
:1006C00082E390E00E944B044AE050E0BE016F5F7D
:1006D0007F4F0E941306E091F009F091F109C801E3
:1006E000880F991FE80FF91F0184F285E02D038020
:1006F000F481E02D8091D507808320E0AE014F5F2B
:100700005F4F6F2D8BE00E944702E091F009F0915E
:10071000F109C801880F991FE80FF91F0184F285BC
:10072000E02D858196818D5A904041F56091D207E8
:1007300070E082E390E00E944B044AE050E0BE018A
:100740006F5F7F4F0E941306E091F009F091F1096D
:10075000C801880F991FE80FF91F0184F285E02D69
:100760000380F481E02D8091D207808320E0AE01E8
:100770004F5F5F4F6F2D8BE00E944702E091F009C1
:10078000F091F109C801880F991FE80FF91F018442
:10079000F285E02D858196818F59904041F56091D9
:1007A000D40770E082E390E00E944B044AE050E0FE
:1007B000BE016F5F7F4F0E941306E091F009F09138
:1007C000F109C801880F991FE80FF91F0184F2850C
:1007D000E02D0380F481E02D8091D407808320E018
:1007E000AE014F5F5F4F6F2D8BE00E944702E0919B
:1007F000F009F091F109C801880F991FE80FF91F5E
:100800000184F285E02D85819681865A904039F5E4
:100810006091D30770E082E390E00E944B044AE0CD
:1008200050E0BE016F5F7F4F0E941306E091F00918
:10083000F091F109000F111FE00FF11F0184F28503
:10084000E02D0380F481E02D8091D307808320E0A8
:10085000AE014F5F5F4F6F2D8BE00E944702F39414
:100860000F2D10E0E091F009F091F109C801880F17
:10087000991FE80FF91F0184F285E02D309709F0E8
:10088000D9CE0F900F900F900F90DF91CF911F91C5
:100890000F91FF900895F8948093170060931600CD
:1008A0007E0378948091010008958823C9F070E058
:1008B000FB01E651F84F80818F5F8083853108F11D
:1008C000FB01EC50F64F8081811105C081E0FB01F6
:1008D000EC50F64F8083FB01E651F84F10820895EB
:1008E00070E0FB01E252F84F80818F5F8083853199
:1008F00040F0FB01EC50F64F1082FB01E252F84F42
:10090000108208958091080A9091090A80FF04C01E
:1009100021E02093D90702C01092D90781FF04C0BB
:1009200021E02093D80702C01092D80782FF04C0AC
:1009300021E02093D70702C01092D70783FF04C09D
:1009400021E02093D60702C01092D60790FF04C082
:1009500021E02093E10702C01092E10791FF04C05B
:1009600021E02093E00702C01092E00792FF04C04C
:1009700021E02093DF0702C01092DF0793FF04C03D
:1009800021E02093DE0702C01092DE0794FF04C02E
:1009900021E02093DD0702C01092DD0795FF04C01F
:1009A00021E02093DC0702C01092DC0796FF04C010
:1009B00021E02093DB0702C01092DB07992324F487
:1009C00081E08093DA0708951092DA0708951F9264
:1009D0000F920FB60F9211240BB60F922F933F93E5
:1009E0004F935F936F937F938F939F93AF93BF9337
:1009F000CF93DF93EF93FF938091DC078F5F80931A
:100A0000DC07883C69F40E94C3000E94EC010E944C
:100A1000960280E00E94EB020E9477021092DC07AF
:100A20008091F6098823A9F0C091DD07D0E00E94EB
:100A3000B400C817D9072CF48091DD078F5F80932D
:100A4000DD078091DD07809300018091F609811117
:100A50000FC01092DD07C0910001D0E00E94B700E6
:100A60008C179D072CF48091000181508093000128
:100A7000FF91EF91DF91CF91BF91AF919F918F91B6
:100A80007F916F915F914F913F912F910F900BBE8E
:100A90000F900FBE0F901F9018951F920F920FB6D8
:100AA0000F9211240BB60F922F933F934F935F93A6
:100AB0006F937F938F939F93AF93BF93EF93FF9326
:100AC0000E948204FF91EF91BF91AF919F918F910E
:100AD0007F916F915F914F913F912F910F900BBE3E
:100AE0000F900FBE0F901F9018951F920F920FB688
:100AF0000F9211240BB60F922F933F938F939F93D6
:100B0000EF93FF938091DA079091DB079C012F5FB1
:100B10003F4F3093DB072093DA07E92FFF27EF5F82
:100B2000FC4F90818091000A989F802D112488B9F4
:100B3000FF91EF919F918F913F912F910F900BBE5D
:100B40000F900FBE0F901F901895A0EBB0E01C9275
:100B5000E1EBF0E010821092B20088EC8093B300D9
:100B60008C9183608C9380818D60808382E0809300
:100B70007000089514BC15BC16BC80E487BD84B514
:100B8000836084BD85B58A6085BD82E080936E00F8
:100B90001092010A1092000A0895ECE7F0E010822A
:100BA000AAE7B0E01C928C91876C8C938081806660
:100BB0008083089578940E94670081E092E090938A
:100BC000F3098093F20981E091E090930D0A8093FC
:100BD0000C0A8FEF87B90E94A4020E949F020E9414
:100BE000BA050E94A5050E94BA000E94CD050E9488
:100BF000210106ED17E00F2EF2EEEF2EF7E0FF2EAB
:100C0000F02D88E09AE00E946D008AE18A95F1F764
:100C100000C0E8016C2F601B89910E945504CE151D
:100C2000DF05C1F7EECF4532510520F4423010F018
:100C30000C941E06FB011082CB010895BB274A309D
:100C400031F4992322F4BDE2909581959F4F0C9445
:100C50002A06BB27FB015527AA27880F991FAA1F21
:100C6000A41710F0A41B83955051B9F7A05DAA33C7
:100C700008F0A95DA193009779F7B111B193119292
:100C8000CB010C944306DC01FC01672F71917723A3
:100C9000E1F7329704C07C916D9370836291AE1737
:0A0CA000BF07C8F30895F894FFCFD2
:100CAA00FF0102030405060708090A0B0C0D0E0FC3
:100CBA00101112131415161718191A1B1C1D1E1FB2
:100CCA00202122232425262728292A2B2C2D2E2FA2
:100CDA00303132333435363738393A3B3C3D3E3F92
:100CEA00404142434445464748494A4B4C4D4E4F82
:100CFA00505152535455565758595A5B5C5D5E5F72
:100D0A00606162636465666768696A6B6C6D6E6F61
:100D1A00707172737475767778797A7B7C7D7E7F51
:100D2A0080808182838485868788898A8B8C8D8E50
:100D3A008F909192939495969798999A9B9C9D9E41
:100D4A009FA0A1A2A3A4A5A6A7A8A9AAABACADAE31
:100D5A00AFB0B1B2B3B4B5B6B7B8B9BABBBCBDBE21
:100D6A00BFC0C1C2C3C4C5C6C7C8C9CACBCCCDCE11
:100D7A00CFD0D1D2D3D4D5D6D7D8D9DADBDCDDDE01
:100D8A00DFE0E1E2E3E4E5E6E7E8E9EAEBECEDEEF1
:100D9A00EFF0F1F2F3F4F5F6F7F8F9FAFBFCFDFEE1
:100DAA00FFFEFEFEFEFEFEFEFEFEFEFEFEFEFEFE58
:100DBA00FEFEFEFEFEFEFEFEFEFEFEFEFEFEFEFE49
:100DCA00FEFEFEFEFEFEFEFEFEFEFEFEFEFEFEFE39
:100DDA00FEFEFEFEFEFEFEFEFEFEFEFEFEFEFEFE29
:100DEA00FEFEFEFEFEFEFEFEFEFEFEFEFEFEFEFE19
:100DFA00FEFEFEFEFEFEFEFEFEFEFEFEFEFEFEFE09
:100E0A00FEFEFEFEFEFEFEFEFEFEFEFEFEFEFEFEF8
:100E1A00FEFEFEFEFEFEFEFEFEFEFEFEFEFEFEFEE8
:100E2A00FE000000000000000000000000000000BA
:100E3A0000000000000000000000000000000000A8
:100E4A000000000000000000000000000000000098
:100E5A000000000000000000000000000000000088
:100E6A000000000000000000000000000000000078
:100E7A000000000000000000000000000000000068
:100E8A000000000000000000000000000000000058
:100E9A000000000000000000000000000000000048
:100EAA0000808386898C909396999C9FA2A5A8AB73
:100EBA00AEB1B4B6B9BCBFC2C4C7C9CCCED1D3D601
:100ECA00D8DADCDEE0E2E4E6E8EAECEDEFF0F2F3B1
:100EDA00F4F6F7F8F9FAFBFBFCFDFDFEFEFEFFFF58
:100EEA00FFFFFFFFFFFEFEFDFDFCFCFBFAF9F8F732
:100EFA00F6F5F4F2F1F0EEECEBE9E7E5E3E1DFDD3C
:100F0A00DBD9D7D4D2D0CDCBC8C5C3C0BDBBB8B549
:100F1A00B2AFACA9A7A4A09D9A9794918E8B88850D
:100F2A00827E7B7875726F6C696663605C59575410
:100F3A00514E4B484543403D3B383533302E2C29E2
:100F4A00272523211F1D1B1917151412100F0E0C0C
:100F5A000B0A09080706050404030302020101013A
:100F6A00010101010202020303040505060708093B
:100F7A000A0C0D0E1011131416181A1C1E20222406
:100F8A0026282A2D2F323437393C3E4144474A4CD1
:100F9A004F5255585B5E6164676A6D7074777A7DEB
:100FAA008046696C74657273004C464F00576176CF
:100FBA0065666F726D004C6576656C004F73636988
:100FCA006C6C61746F722031004F7363696C6C6171
:100FDA00746F722032004F7363696C6C61746F7244
:100FEA00730041747461636B0044656361790053F3
:100FFA0075737461696E0052656C65617365004151
:10100A00445352004F73632031004F736320320000
:10101A004F7363203300536F756E647300000000D2
:10102A000000000000002F00000000070007000079
:10103A00147F147F1400242A7F2A12006264081382
:10104A002300364955225000000503000000001C09
:10105A00224100000041221C000014083E0814002E
:10106A0008083E0808000000A060000008080808F8
:10107A0008000060600000002010080402003E51D1
:10108A0049453E0000427F40000042615149460006
:10109A002141454B31001814127F10002745454560
:1010AA0039003C4A494930000171090503003649B3
:1010BA0049493600064949291E0000363600000013
:1010CA0000563600000008142241000014141414BB
:1010DA001400004122140800020151090600324995
:1010EA0059513E007C1211127C007F494949360051
:1010FA003E41414122007F4141221C007F4949492A
:10110A0041007F09090901003E4149497A007F08E7
:10111A0008087F0000417F4100002040413F010054
:10112A007F08142241007F40404040007F020C02A9
:10113A007F007F0408107F003E4141413E007F0945
:10114A00090906003E4151215E007F09192946001E
:10115A0046494949310001017F0101003F404040B1
:10116A003F001F2040201F003F4038403F006314CB
:10117A0008146300070870080700615149454300D5
:10118A00007F41410000552A552A55000041417F00
:10119A0000000402010204004040404040000001F7
:1011AA00020400002054545478007F484444380014
:1011BA00384444442000384444487F003854545446
:1011CA001800087E0901020018A4A4A47C007F0864
:1011DA000404780000447D4000004080847D0000C3
:1011EA007F102844000000417F4000007C0418045E
:1011FA0078007C0804047800384444443800FC240D
:10120A002424180018242418FC007C08040408006C
:10121A00485454542000043F444020003C4040209D
:10122A007C001C2040201C003C4030403C004428EC
:10123A00102844001CA0A0A07C004464544C441410
:06124A001414141414003A
:00000001FF
