:100000000C9446000C9465000C9465000C946500FB
:100010000C9465000C9465000C9465000C946500CC
:100020000C9465000C9465000C9465000C946500BC
:100030000C9465000C9452010C9465000C946500BE
:100040000C947A010C9465000C9465000C94650086
:100050000C9465000C9465000C9465000C9465008C
:100060000C9465000C9465000C9465000C9465007C
:100070000C9465000C9465000C9465000C9465006C
:100080000C9465000C9465000C94650011241FBE4F
:10009000CFEFD0E4DEBFCDBF13E0A0E0B1E0E4EBF2
:1000A000F4E000E00BBF02C007900D92A832B10748
:1000B000D9F723E0A8E2B3E001C01D92A134B20752
:1000C000E1F70E944A020C9458020C9400005898E0
:1000D000811102C05C980EC05C9A0CC0662314F4B7
:1000E0005D9A01C05D985F98660F5F9A8150B1F785
:1000F000589A089588E0F2CF1F93CF93DF938052F0
:1001000090E0EC01CC0FDD1F8C0F9D1FEC01CC0F9C
:10011000DD1FC050DF4F10E0699170E081E090E09A
:100120000E9467001F5F1630B9F7DF91CF911F91D2
:100130000895CF93DF936CE070E080E090E00E9440
:10014000670060E870E080E090E00E946700C8EF20
:10015000D1E060E070E081E090E00E9467002197CC
:100160002097B9F7DF91CF91089583EB8AB9599819
:1001700082E08A95F1F700C0599A589882E08A95F2
:10018000F1F700C0589A82E08A95F1F700C061E269
:1001900070E080E090E00E94670068EC70E080E032
:1001A00090E00E94670066E070E080E090E00E94CE
:1001B000670063E170E080E090E00E94670060E229
:1001C00070E080E090E00E9467006CE070E080E00A
:1001D00090E00E94670058980895809131039091B3
:1001E000320380FF04C021E02093380302C0109244
:1001F000380381FF04C021E02093370302C010922E
:10020000370382FF04C021E02093360302C010921E
:10021000360383FF04C021E02093350302C010920F
:10022000350390FF04C021E02093400302C01092E8
:10023000400391FF04C021E020933F0302C01092CD
:100240003F0392FF04C021E020933E0302C01092BE
:100250003E0393FF04C021E020933D0302C01092AF
:100260003D0394FF04C021E020933C0302C01092A0
:100270003C0395FF04C021E020933B0302C0109291
:100280003B0396FF04C021E020933A0302C0109282
:100290003A03992324F481E080933903089510925E
:1002A000390308951F920F920FB60F9211240BB6C7
:1002B0000F922F933F934F935F936F937F938F93FF
:1002C0009F93AF93BF93EF93FF930E94ED00FF9135
:1002D000EF91BF91AF919F918F917F916F915F91BE
:1002E0004F913F912F910F900BBE0F900FBE0F902B
:1002F0001F9018951F920F920FB60F9211240BB6F4
:100300000F928F939F93EF93FF93809128038C5FBD
:100310008093280390913503992359F0E0912903A4
:10032000F0912A03E80FF11D808188B980EF87BD25
:10033000A6C090913603992359F0E0912903F091DA
:100340002A03E80FF11D808188B982EE87BD97C02E
:1003500090913703992359F0E0912903F0912A03F2
:10036000E80FF11D808188B986ED87BD88C0909126
:100370003803992359F0E0912903F0912A03E80FFB
:10038000F11D808188B98AEC87BD79C090913903CD
:10039000992359F0E0912903F0912A03E80FF11D08
:1003A000808188B98EEB87BD6AC090913A0399230A
:1003B00059F0E0912903F0912A03E80FF11D8081A3
:1003C00088B984EB87BD5BC090913B03992359F0BA
:1003D000E0912903F0912A03E80FF11D808188B98B
:1003E0008AEA87BD4CC090913C03992359F0E09173
:1003F0002903F0912A03E80FF11D808188B980EA72
:1004000087BD3DC090913D03992359F0E0912903A8
:10041000F0912A03E80FF11D808188B987E987BD33
:100420002EC090913E03992359F0E0912903F09159
:100430002A03E80FF11D808188B98FE887BD1FC0AE
:1004400090913F03992359F0E0912903F0912A03F9
:10045000E80FF11D808188B987E887BD10C09091B1
:100460004003992359F0E0912903F0912A03E80F02
:10047000F11D808188B98FE787BD01C018B8FF9151
:10048000EF919F918F910F900BBE0F900FBE0F9029
:100490001F9018950E94B5000E9499008FE30E945A
:1004A0007C0078940E9499008FE30E947C00FACF30
:0404B000F894FFCFEE
:1004B4000000000000000000002F00000000070002
:1004C400070000147F147F1400242A7F2A1200627C
:1004D4006408132300364955225000000503000028
:1004E40000001C224100000041221C000014083EB0
:1004F40008140008083E0808000000A06000000876
:1005040008080808000060600000002010080402C9
:10051400003E5149453E0000427F40000042615187
:100524004946002141454B31001814127F10002721
:1005340045454539003C4A494930000171090503E4
:1005440000364949493600064949291E0000363615
:100554000000000056360000000814224100001478
:100564001414141400004122140800020151090655
:1005740000324959513E007C1211127C007F4949D6
:100584004936003E41414122007F4141221C007F07
:1005940049494941007F09090901003E4149497A15
:1005A400007F0808087F0000417F4100002040418F
:1005B4003F01007F08142241007F40404040007FFB
:1005C400020C027F007F0408107F003E4141413E3F
:1005D400007F09090906003E4151215E007F091987
:1005E40029460046494949310001017F0101003F84
:1005F4004040403F001F2040201F003F4038403F04
:100604000063140814630007087008070061514967
:10061400454300007F41410000552A552A550000FA
:1006240041417F0000040201020400404040404078
:10063400000001020400002054545478007F484410
:10064400443800384444442000384444487F003847
:100654005454541800087E0901020018A4A4A47C70
:10066400007F080404780000447D4000004080843A
:100674007D00007F102844000000417F4000007C82
:1006840004180478007C080404780038444444388E
:1006940000FC242424180018242418FC007C0804DA
:1006A400040800485454542000043F444020003CB3
:1006B4004040207C001C2040201C003C4030403C3A
:1006C400004428102844001CA0A0A07C00446454CA
:0806D4004C4414141414141416
:00000001FF
