S01200006F7574707574746573742E73726563A1
S11300000C9446000C9465000C9465000C946500F7
S11300100C9465000C9465000C9465000C946500C8
S11300200C9465000C9458010C9465000C946500C4
S11300300C9465000C94D2000C9465000C9465003B
S11300400C9482010C9465000C9465000C9465007A
S11300500C9465000C9465000C9465000C94650088
S11300600C9465000C9465000C9465000C94650078
S11300700C9465000C9465000C9465000C94650068
S11300800C9465000C9465000C94650011241FBE4B
S1130090CFEFD0E4DEBFCDBF12E0A0E0B1E0ECE7EB
S11300A0F3E000E00BBF02C007900D92A030B1074F
S11300B0D9F723E0A0E0B2E001C01D92A134B20759
S11300C0E1F70E94AE010C94BC010C940000249A48
S11300D0209A26982C98289808958091350290911A
S11300E0360280FF04C021E02093340202C0109243
S11300F0340281FF04C021E02093330202C0109235
S1130100330282FF04C021E02093320202C0109225
S1130110320283FF04C021E02093310202C0109216
S1130120310284FF04C021E02093300202C0109207
S1130130300285FF04C021E020932F0202C01092F8
S11301402F0286FF04C021E020932E0202C01092E9
S11301502E0287FF04C021E020932D0202C01092DA
S11301602D0290FF04C021E020932C0202C01092C3
S11301702C0291FF04C021E020932B0202C01092B4
S11301802B0292FF04C021E020932A0202C01092A5
S11301902A0293FF04C081E08093290208951092FB
S11301A0290208951F920F920FB60F9211240BB6D5
S11301B00F922F933F938F939F93EF93FF93E1E1DC
S11301C0F2E0808191818854924F91838083E3E1AE
S11301D0F2E0208131812C54364F31832083E5E1D4
S11301E0F2E0208131812C54364F31832083892FD2
S11301F09927E0913702F0913802E80FF91F8081C6
S11302008093050288B9809104028D5F8093040273
S1130210809103028E5F80930302FF91EF919F917F
S11302208F913F912F910F900BBE0F900FBE0F90A7
S11302301F90189520910202211105C028980000F2
S113024000000000289A23B126FB882780F990E05B
S1130250409102022FE030E0241B310902C0880FD4
S1130260991F2A95E2F72091000230910102822B16
S1130270932B90930102809300022C9A00000000BB
S11302802C98809102028F5F803118F480930202CF
S113029008951092020280910002909101029093BD
S11302A036028093350210920102109200020895E2
S11302B01F920F920FB60F9211240BB60F922F9329
S11302C03F934F935F936F937F938F939F93AF93DA
S11302D0BF93EF93FF930E941A010E946D00FF9158
S11302E0EF91BF91AF919F918F917F916F915F91AA
S11302F04F913F912F910F900BBE0F900FBE0F9017
S11303001F9018951F920F920FB60F9211240F9001
S11303100FBE0F901F901895A0E8B0E01C92E1E882
S1130320F0E01082109282001092850010928400F6
S11303308C9182608C9380818A61808384E690E0D2
S1130340909387008093860082E390E090938900E5
S11303508093880082E080936F00089578940E94CF
S1130360670080E091E090933802809337028FEF2A
S10F037087B90E948C01FFCFF894FFCFE6
S113037C0102030405060708090A0B0C0D0E0F10E5
S113038C1112131415161718191A1B1C1D1E1F20D5
S113039C2122232425262728292A2B2C2D2E2F30C5
S11303AC3132333435363738393A3B3C3D3E3F40B5
S11303BC4142434445464748494A4B4C4D4E4F50A5
S11303CC5152535455565758595A5B5C5D5E5F6095
S11303DC6162636465666768696A6B6C6D6E6F7085
S11303EC7172737475767778797A7B7C7D7E7F8075
S11303FC808182838485868788898A8B8C8D8E8F75
S113040C909192939495969798999A9B9C9D9E9F64
S113041CA0A1A2A3A4A5A6A7A8A9AAABACADAEAF54
S113042CB0B1B2B3B4B5B6B7B8B9BABBBCBDBEBF44
S113043CC0C1C2C3C4C5C6C7C8C9CACBCCCDCECF34
S113044CD0D1D2D3D4D5D6D7D8D9DADBDCDDDEDF24
S113045CE0E1E2E3E4E5E6E7E8E9EAEBECEDEEEF14
S113046CF0F1F2F3F4F5F6F7F8F9FAFBFCFDFEFF04
S9030000FC
