:100000000C9446000C9465000C9465000C946500FB
:100010000C9465000C9465000C9465000C946500CC
:100020000C9465000C9465000C9465000C946500BC
:100030000C9465000C94BA010C9465000C94650056
:100040000C94E2010C9465000C9465000C9465001E
:100050000C9465000C9465000C9465000C9465008C
:100060000C949D010C9465000C9465000C94650043
:100070000C9465000C9465000C9465000C9465006C
:100080000C9465000C9465000C94650011241FBE4F
:10009000CFEFD0E4DEBFCDBF14E0A0E0B1E0EAE7EF
:1000A000F6E000E00BBF02C007900D92A833B10745
:1000B000D9F726E0A8E3B4E001C01D92AA34B20744
:1000C000E1F70E94BD020C943B030C940000249ABB
:1000D000209A26982C9828980895CF93289840E144
:1000E0004A95F1F700C0289AE82FF92F72E0C7E08F
:1000F000B0E0A0E017C043B146FB222720F930E072
:10010000A901082E02C0440F551F0A94E2F7642B80
:100110002C9A00C000C000002C98019760F76193F2
:10012000715021F08C2F9B2F6A2FE5CFCF9108952E
:100130005898813011F45C9A0EC05C980CC066230C
:1001400014F45D9A01C05D985F98660F5F9A8150C4
:10015000B1F7589A089588E0F2CF1F93CF93DF93B9
:10016000C82FD0E0A097CE01880F991FC80FD91FC4
:10017000CC0FDD1FC15FDD4F10E0699181E00E946F
:1001800098001F5F1630C9F7DF91CF911F91089536
:10019000CF93C82F606480E00E9498006C2F606845
:1001A00080E00E949800CF910895CF93DF93EA01F9
:1001B0000E94C8008881882331F021960E94AD00FA
:1001C00089918111FBCFDF91CF910895CF93DF9378
:1001D000C8EFD1E060E081E00E949800219720976D
:1001E000C9F7DF91CF9108958FEF8AB959982FEF12
:1001F00080E792E0215080409040E1F700C000008D
:10020000599A58988FE097E20197F1F700C00000E3
:1002100059980000599A599892E09A95F1F700C0C0
:10022000599A589822E02A95F1F700C0589A82E02E
:100230008A95F1F700C0599A61E280E00E94980027
:1002400061EC80E00E94980066E080E00E949800E7
:1002500063E180E00E94980060E280E00E949800E4
:100260000E94E6006CE080E00E9498005898089593
:1002700080913A0690913B0680FF04C021E02093D4
:10028000410602C01092410681FF04C021E0209384
:10029000400602C01092400682FF04C021E0209375
:1002A0003F0602C010923F0683FF04C021E0209366
:1002B0003E0602C010923E0690FF04C021E020934B
:1002C000490602C01092490691FF04C021E0209324
:1002D000480602C01092480692FF04C021E0209315
:1002E000470602C01092470693FF04C021E0209306
:1002F000460602C01092460694FF04C021E02093F7
:10030000450602C01092450695FF04C021E02093E7
:10031000440602C01092440696FF04C021E02093D8
:10032000430602C010924306992324F481E080938F
:10033000420608951092420608951F920F920FB63A
:100340000F9211240BB60F928F93EF93FF9380912E
:10035000790080933506EAE7F0E08081806480834D
:10036000FF91EF918F910F900BBE0F900FBE0F90EA
:100370001F9018951F920F920FB60F9211240BB673
:100380000F922F933F934F935F936F937F938F932E
:100390009F93AF93BF93EF93FF930E943801FF9118
:1003A000EF91BF91AF919F918F917F916F915F91ED
:1003B0004F913F912F910F900BBE0F900FBE0F905A
:1003C0001F9018951F920F920FB60F9211240BB623
:1003D0000F928F939F93EF93FF93809138048C5FDC
:1003E0008093380490913E06992359F0E0913904A6
:1003F000F0913A04E80FF11D808188B980EF87BD44
:10040000A6C090913F06992359F0E0913904F091EC
:100410003A04E80FF11D808188B982EE87BD97C04C
:1004200090914006992359F0E0913904F0913A04F3
:10043000E80FF11D808188B986ED87BD88C0909155
:100440004106992359F0E0913904F0913A04E80FFC
:10045000F11D808188B98AEC87BD79C090914206F0
:10046000992359F0E0913904F0913A04E80FF11D15
:10047000808188B98EEB87BD6AC09091430699232D
:1004800059F0E0913904F0913A04E80FF11D8081B0
:1004900088B984EB87BD5BC090914406992359F0DD
:1004A000E0913904F0913A04E80FF11D808188B998
:1004B0008AEA87BD4CC090914506992359F0E09196
:1004C0003904F0913A04E80FF11D808188B980EA7F
:1004D00087BD3DC090914606992359F0E0913904BB
:1004E000F0913A04E80FF11D808188B987E987BD52
:1004F0002EC090914706992359F0E0913904F0916C
:100500003A04E80FF11D808188B98FE887BD1FC0CC
:1005100090914806992359F0E0913904F0913A04FA
:10052000E80FF11D808188B987E887BD10C09091E0
:100530004906992359F0E0913904F0913A04E80F03
:10054000F11D808188B98FE787BD01C018B8FF9180
:10055000EF919F918F910F900BBE0F900FBE0F9058
:100560001F901895EAE7F0E080818F6C8083ECE7BC
:10057000F0E08081806280830895CF93DF9300D084
:1005800000D0CDB7DEB778940E94670080E091E09C
:1005900090933A04809339048FEF87B90E94F40056
:1005A0000E94E60040E052E060E080E00E94D5005A
:1005B0000E94B202809135064AE050E0BE016F5FB2
:1005C0007F4F90E00E94FB02AE014F5F5F4F65E0FE
:1005D00085E00E94D5002FEF80E792E02150804017
:1005E0009040E1F700C000000E94E6008AE396E038
:1005F0000E946D00DFCF4532510520F4423010F0EB
:100600000C940603FB011082CB010895BB274A30EE
:1006100031F4992322F4BDE2909581959F4F0C947B
:100620001203BB27FB015527AA27880F991FAA1F72
:10063000A41710F0A41B83955051B9F7A05DAA33FD
:1006400008F0A95DA193009779F7B111B1931192C8
:10065000CB010C942B03DC01FC01672F71917723F4
:10066000E1F7329704C07C916D9370836291AE176D
:0A067000BF07C8F30895F894FFCF08
:10067A00808386898C909396999C9FA2A5A8ABAEFD
:10068A00B1B4B6B9BCBFC2C4C7C9CCCED1D3D6D80F
:10069A00DADCDEE0E2E4E6E8EAECEDEFF0F2F3F4CD
:1006AA00F6F7F8F9FAFBFBFCFDFDFEFEFEFFFFFF85
:1006BA00FFFFFFFFFEFEFDFDFCFCFBFAF9F8F7F673
:1006CA00F5F4F2F1F0EEECEBE9E7E5E3E1DFDDDB8F
:1006DA00D9D7D4D2D0CDCBC8C5C3C0BDBBB8B5B2AB
:1006EA00AFACA9A7A4A09D9A9794918E8B88858276
:1006FA007E7B7875726F6C696663605C595754517A
:10070A004E4B484543403D3B383533302E2C292744
:10071A002523211F1D1B1917151412100F0E0C0B60
:10072A000A0908070605040403030202010101017C
:10073A000101010202020303040505060708090A6A
:10074A000C0D0E1011131416181A1C1E2022242622
:10075A00282A2D2F323437393C3E4144474A4C4FE0
:10076A005255585B5E6164676A6D7074777A7D80F2
:10077A004572696B203C33204B6C61726121000029
:10078A0000000000000000002F0000000007000722
:10079A000000147F147F1400242A7F2A1200626446
:1007AA0008132300364955225000000503000000B3
:1007BA00001C224100000041221C000014083E08CF
:1007CA00140008083E0808000000A060000008089D
:1007DA0008080800006060000000201008040200F9
:1007EA003E5149453E0000427F4000004261514966
:1007FA0046002141454B31001814127F100027454D
:10080A00454539003C4A4949300001710905030050
:10081A00364949493600064949291E00003636003C
:10082A00000000563600000008142241000014148B
:10083A001414140000412214080002015109060090
:10084A00324959513E007C1211127C007F494949B4
:10085A0036003E41414122007F4141221C007F492E
:10086A00494941007F09090901003E4149497A0085
:10087A007F0808087F0000417F4100002040413F77
:10088A0001007F08142241007F40404040007F025F
:10089A000C027F007F0408107F003E4141413E0068
:1008AA007F09090906003E4151215E007F09192985
:1008BA00460046494949310001017F0101003F4094
:1008CA0040403F001F2040201F003F4038403F006B
:1008DA00631408146300070870080700615149454A
:1008EA004300007F41410000552A552A5500004126
:1008FA00417F0000040201020400404040404000E1
:10090A000001020400002054545478007F484444F3
:10091A003800384444442000384444487F0038545E
:10092A0054541800087E0901020018A4A4A47C00EB
:10093A007F080404780000447D4000004080847DE4
:10094A0000007F102844000000417F4000007C0422
:10095A00180478007C0804047800384444443800B9
:10096A00FC242424180018242418FC007C080404FD
:10097A000800485454542000043F444020003C409E
:10098A0040207C001C2040201C003C4030403C00A1
:10099A004428102844001CA0A0A07C004464544CA5
:0809AA00441414141414140089
:00000001FF
