:100000000C9446000C9465000C9465000C946500FB
:100010000C9465000C9465000C9465000C946500CC
:100020000C9465000C9413040C9465000C9465000A
:100030000C9465000C9479040C9465000C94650094
:100040000C94A1040C9465000C9465000C9465005C
:100050000C9465000C9465000C9465000C9465008C
:100060000C9465000C9465000C9465000C9465007C
:100070000C9465000C9465000C9465000C9465006C
:100080000C9465000C9465000C94650011241FBE4F
:10009000CFEFD0E4DEBFCDBF16E0A0E0B1E0E4E2F8
:1000A000FBE000E00BBF02C007900D92AA32B1073F
:1000B000D9F729E0AAE2B6E001C01D92A936B2073D
:1000C000E1F70E941D050C9490050C940000249A01
:1000D000209A26982C9828980895CF93289840E144
:1000E0004A95F1F700C0289AE82FF92F72E0C7E08F
:1000F000B0E0A0E017C043B146FB222720F930E072
:10010000A901082E02C0440F551F0A94E2F7642B80
:100110002C9A00C000C000002C98019760F76193F2
:10012000715021F08C2F9B2F6A2FE5CFCF9108952E
:100130008EE296E090934A088093490808958DE2F4
:1001400096E090934A088093490808958CE296E0DF
:1001500090934A088093490808958BE296E0909323
:100160004A0880934908089580912E060895809149
:100170002B06089580913106882349F0E0914B08C1
:10018000F0914C088281833010F48F5F82838091DC
:100190003006882349F0E0914B08F0914C088281A9
:1001A000882311F081508283809132068823F1F0F8
:1001B000E0914B08F0914C08A281B0E0AA0FBB1F60
:1001C000AE0FBF1F19960D90BC91A02D5696FC93B3
:1001D000EE935597828190E0880F991FE80FF91FE1
:1001E0008185928590934C0880934B08E0914B0851
:1001F000F0914C08828190E0880F991FE80FF91F59
:100200000184F285E02D0580F681E02D309709F01C
:10021000099580912F06882351F0E0914B08F091C9
:100220004C088589968990934C0880934B080895D3
:100230004E9B03C010922F0603C081E080932F06CF
:10024000199B03C01092300603C081E080933006F2
:100250001A9B03C01092310603C081E080933106DF
:100260001B9B03C010923206089581E080933206F2
:1002700008955C98589898E0882314F45F9A01C018
:100280005F985D98880F5D9A9150B1F75C9A0895D8
:1002900090E0FC01EE0FFF1F8E0F9F1FFC01EE0F81
:1002A000FF1F84E5689FE00DF11D1124A42FB0E02D
:1002B0009097CD01880F991FA80FB91FAA0FBB1FD8
:1002C000AF5FBB4FEF5AF94F80E0222321F09C91A2
:1002D0009095908302C09C9190838F5F1196319688
:1002E000863099F70895BF92CF92DF92EF92FF92F6
:1002F0000F931F93CF93DF93EA0148814423C9F002
:10030000219690E0C22ED12CE62EF12C082F10E081
:10031000BB24B394B90E50E09601B701F801E90F80
:10032000F11DCF010E9448014991442311F09B2DFA
:10033000EFCFDF91CF911F910F91FF90EF90DF9062
:10034000CF90BF9008955C98589AA1E5B6E089E4F3
:1003500098E048E012C03C91332314F45F9A01C046
:100360005F985D983081330F308300005D9A215093
:1003700091F71196A817B90719F0242FFD01EBCFBB
:100380005C9A0895E1E5F6E089E498E01192E817B7
:10039000F907E1F708950E94C2010E94A3010895A0
:1003A0008FEF8AB95A9887EA91E60197F1F700C072
:1003B00000005A9A5C9881EE94E00197F1F700C032
:1003C00000005A9800005A9A5A9800005A9A5C986D
:1003D00000005C9A00005A9A81E290E00E94390184
:1003E00081EC90E00E94390186E090E00E943901A2
:1003F00083E190E00E94390180E290E00E9439019F
:100400000E94CB018CE090E00E9439015C98089535
:1004100024E5829FC0011124FC01EF5AF94F80E0CE
:100420009081909591938F5F8435D1F70895FF92D5
:100430000F931F93CF93DF9300D000D0CDB7DEB7DB
:10044000EAE7F0E08081A0914908B0914A088C91D8
:1004500080932A06809179008C93808180648083C8
:100460004AE050E0BE016F5F7F4F89E498E00E9450
:100470005005E0914B08F0914C080184F285E02D85
:10048000309709F42AC100E010E0F12C408151813D
:1004900020E06F2D80E00E947301E0914B08F09105
:1004A0004C0882818F1102C00E940802E0914B0823
:1004B000F0914C08C801880F991FE80FF91F0184BB
:1004C000F285E02D0380F481E02D309789F0808162
:1004D0004AE050E0BE016F5F7F4F90E00E94500500
:1004E00020E0AE014F5F5F4F6F2D8BE00E947301E4
:1004F000E0914B08F0914C08C801880F991FE80F54
:10050000F91F0184F285E02D8581968188599040FC
:1005100041F560912E0670E082E390E00E9477033F
:100520004AE050E0BE016F5F7F4F0E945005E091AE
:100530004B08F0914C08C801880F991FE80FF91F6C
:100540000184F285E02D0380F481E02D80912E0658
:10055000808320E0AE014F5F5F4F6F2D8BE00E94E4
:100560007301E0914B08F0914C08C801880F991F66
:10057000E80FF91F0184F285E02D858196818D5A5F
:10058000904041F560912B0670E082E390E00E947C
:1005900077034AE050E0BE016F5F7F4F0E94500535
:1005A000E0914B08F0914C08C801880F991FE80FA3
:1005B000F91F0184F285E02D0380F481E02D809104
:1005C0002B06808320E0AE014F5F5F4F6F2D8BE0E5
:1005D0000E947301E0914B08F0914C08C801880F0C
:1005E000991FE80FF91F0184F285E02D858196811E
:1005F0008F59904041F560912D0670E082E390E0C4
:100600000E9477034AE050E0BE016F5F7F4F0E9477
:100610005005E0914B08F0914C08C801880F991FD4
:10062000E80FF91F0184F285E02D0380F481E02DAD
:1006300080912D06808320E0AE014F5F5F4F6F2DCC
:100640008BE00E947301E0914B08F0914C08C801C7
:10065000880F991FE80FF91F0184F285E02D85812D
:100660009681865A904039F560912C0670E082E3BD
:1006700090E00E9477034AE050E0BE016F5F7F4F39
:100680000E945005E0914B08F0914C08000F111F9B
:10069000E00FF11F0184F285E02D0380F481E02D4D
:1006A00080912C06808320E0AE014F5F5F4F6F2D5D
:1006B0008BE00E947301F3940F2D10E0E0914B0842
:1006C000F0914C08C801880F991FE80FF91F0184A9
:1006D000F285E02D309709F0D9CE0F900F900F9052
:1006E0000F90DF91CF911F910F91FF900895F89493
:1006F00080931700609316007E0378948091010028
:1007000008958823C9F070E0FB01EB5BF94F80810D
:100710008F5F8083853108F1FB01E15BF74F8081BA
:10072000811105C081E0FB01E15BF74F8083FB0194
:10073000EB5BF94F1082089570E0FB01E75CF94F25
:1007400080818F5F8083853140F0FB01E15BF74F53
:100750001082FB01E75CF94F1082089580916308D5
:100760009091640880FF04C021E02093320602C00B
:100770001092320681FF04C021E02093310602C0AE
:100780001092310682FF04C021E02093300602C09F
:100790001092300683FF04C021E020932F0602C090
:1007A00010922F0690FF04C021E020933A0602C069
:1007B00010923A0691FF04C021E02093390602C04E
:1007C0001092390692FF04C021E02093380602C03F
:1007D0001092380693FF04C021E02093370602C030
:1007E0001092370694FF04C021E02093360602C021
:1007F0001092360695FF04C021E02093350602C012
:100800001092350696FF04C021E02093340602C002
:1008100010923406992324F481E0809333060895DE
:100820001092330608951F920F920FB60F92112463
:100830000BB60F922F933F934F935F936F937F93DA
:100840008F939F93AF93BF93CF93DF93EF93FF93D8
:10085000809137068F5F80933706883C69F40E9449
:10086000BA000E9418010E94C20180E00E94170293
:100870000E94A30110923706809151088823A9F0A5
:10088000C0913806D0E00E94B400C817D9072CF4F4
:10089000809138068F5F8093380680913806809368
:1008A00000018091510881110FC010923806C0914B
:1008B0000001D0E00E94B7008C179D072CF48091B6
:1008C0000001815080930001FF91EF91DF91CF9162
:1008D000BF91AF919F918F917F916F915F914F9158
:1008E0003F912F910F900BBE0F900FBE0F901F9056
:1008F00018951F920F920FB60F9211240BB60F92FC
:100900002F933F934F935F936F937F938F939F9317
:10091000AF93BF93EF93FF930E94AE03FF91EF91CC
:10092000BF91AF919F918F917F916F915F914F9107
:100930003F912F910F900BBE0F900FBE0F901F9005
:1009400018951F920F920FB60F9211240BB60F92AB
:100950002F933F934F938F939F93EF93FF938091A8
:1009600035069091360680569D4F909336068093BB
:10097000350620913306309134062A5D3C4F309382
:1009800034062093330640914F08442341F0E92F69
:10099000FF27EF5FFC4F8081869588B90BC080915F
:1009A0005008882339F0E32FFF27EF5FFC4F808149
:1009B000869588B9FF91EF919F918F914F913F91CB
:1009C0002F910F900BBE0F900FBE0F901F90189598
:1009D000A0E8B0E01C92E1E8F0E010821092820002
:1009E00010928500109284008C9182608C9380819B
:1009F0008D61808384E690E09093870080938600E9
:100A000082E390E0909389008093880082E0809355
:100A10006F00089514BC15BC16BC80E487BD84B576
:100A2000836084BD85B58A6085BD82E080936E0059
:100A300010925C0810925B08089578940E946700F9
:100A400081E092E090934E0880934D0881E091E020
:100A500090936808809367088FEF87B90E94D00150
:100A60000E94CB010E94E8040E940A050FE216E0F2
:100A70000F2EFBE3EF2EF6E0FF2EF02D83E698E03D
:100A80000E946D0082E48A95F1F700C0E8016C2FA6
:100A9000601B89910E948103CE15DF05C1F7EECF5F
:100AA0004532510520F4423010F00C945B05FB01F7
:100AB0001082CB010895BB274A3031F4992322F4E8
:100AC000BDE2909581959F4F0C946705BB27FB0174
:100AD0005527AA27880F991FAA1FA41710F0A41B37
:100AE00083955051B9F7A05DAA3308F0A95DA19391
:100AF000009779F7B111B1931192CB010C94800555
:100B0000DC01FC01672F71917723E1F7329704C074
:100B10007C916D9370836291AE17BF07C8F30895FF
:040B2000F894FFCF77
:100B2400FF0102030405060708090A0B0C0D0E0F4A
:100B3400101112131415161718191A1B1C1D1E1F39
:100B4400202122232425262728292A2B2C2D2E2F29
:100B5400303132333435363738393A3B3C3D3E3F19
:100B6400404142434445464748494A4B4C4D4E4F09
:100B7400505152535455565758595A5B5C5D5E5FF9
:100B8400606162636465666768696A6B6C6D6E6FE9
:100B9400707172737475767778797A7B7C7D7E7FD9
:100BA40080808182838485868788898A8B8C8D8ED8
:100BB4008F909192939495969798999A9B9C9D9EC9
:100BC4009FA0A1A2A3A4A5A6A7A8A9AAABACADAEB9
:100BD400AFB0B1B2B3B4B5B6B7B8B9BABBBCBDBEA9
:100BE400BFC0C1C2C3C4C5C6C7C8C9CACBCCCDCE99
:100BF400CFD0D1D2D3D4D5D6D7D8D9DADBDCDDDE89
:100C0400DFE0E1E2E3E4E5E6E7E8E9EAEBECEDEE78
:100C1400EFF0F1F2F3F4F5F6F7F8F9FAFBFCFDFE68
:100C2400FFFEFEFEFEFEFEFEFEFEFEFEFEFEFEFEDF
:100C3400FEFEFEFEFEFEFEFEFEFEFEFEFEFEFEFED0
:100C4400FEFEFEFEFEFEFEFEFEFEFEFEFEFEFEFEC0
:100C5400FEFEFEFEFEFEFEFEFEFEFEFEFEFEFEFEB0
:100C6400FEFEFEFEFEFEFEFEFEFEFEFEFEFEFEFEA0
:100C7400FEFEFEFEFEFEFEFEFEFEFEFEFEFEFEFE90
:100C8400FEFEFEFEFEFEFEFEFEFEFEFEFEFEFEFE80
:100C9400FEFEFEFEFEFEFEFEFEFEFEFEFEFEFEFE70
:100CA400FE00000000000000000000000000000042
:100CB4000000000000000000000000000000000030
:100CC4000000000000000000000000000000000020
:100CD4000000000000000000000000000000000010
:100CE4000000000000000000000000000000000000
:100CF40000000000000000000000000000000000F0
:100D040000000000000000000000000000000000DF
:100D140000000000000000000000000000000000CF
:100D240000808386898C909396999C9FA2A5A8ABFA
:100D3400AEB1B4B6B9BCBFC2C4C7C9CCCED1D3D688
:100D4400D8DADCDEE0E2E4E6E8EAECEDEFF0F2F338
:100D5400F4F6F7F8F9FAFBFBFCFDFDFEFEFEFFFFDF
:100D6400FFFFFFFFFFFEFEFDFDFCFCFBFAF9F8F7B9
:100D7400F6F5F4F2F1F0EEECEBE9E7E5E3E1DFDDC3
:100D8400DBD9D7D4D2D0CDCBC8C5C3C0BDBBB8B5D1
:100D9400B2AFACA9A7A4A09D9A9794918E8B888595
:100DA400827E7B7875726F6C696663605C59575498
:100DB400514E4B484543403D3B383533302E2C296A
:100DC400272523211F1D1B1917151412100F0E0C94
:100DD4000B0A0908070605040403030202010101C2
:100DE40001010101020202030304050506070809C3
:100DF4000A0C0D0E1011131416181A1C1E2022248E
:100E040026282A2D2F323437393C3E4144474A4C58
:100E14004F5255585B5E6164676A6D7074777A7D72
:100E2400800000000000000000002F000000000708
:100E340000070000147F147F1400242A7F2A120064
:100E4400626408132300364955225000000503004C
:100E54000000001C224100000041221C0000140874
:100E64003E08140008083E0808000000A0600000C6
:100E7400080808080800006060000000201008044A
:100E840002003E5149453E0000427F40000042615D
:100E9400514946002141454B31001814127F10007E
:100EA4002745454539003C4A494930000171090547
:100EB4000300364949493600064949291E000036CF
:100EC40036000000005636000000081422410000DD
:100ED40014141414140000412214080002015109CE
:100EE4000600324959513E007C1211127C007F49A0
:100EF400494936003E41414122007F4141221C00C4
:100F04007F49494941007F09090901003E41494996
:100F14007A007F0808087F0000417F4100002040DC
:100F2400413F01007F08142241007F4040404000BF
:100F34007F020C027F007F0408107F003E41414184
:100F44003E007F09090906003E4151215E007F09E8
:100F54001929460046494949310001017F01010030
:100F64003F4040403F001F2040201F003F4038408A
:100F74003F006314081463000708700807006151F8
:100F840049454300007F41410000552A552A550038
:100F94000041417F0000040201020400404040403F
:100FA40040000001020400002054545478007F489B
:100FB40044443800384444442000384444487F00C2
:100FC400385454541800087E0901020018A4A4A43B
:100FD4007C007F080404780000447D4000004080C9
:100FE400847D00007F102844000000417F40000001
:100FF4007C04180478007C080404780038444444D1
:101004003800FC242424180018242418FC007C082C
:1010140004040800485454542000043F4440200071
:101024003C4040207C001C2040201C003C403040C0
:101034003C004428102844001CA0A0A07C00446468
:0A104400544C441414141414140046
:00000001FF
