S01200006F7574707574746573742E73726563A1
S11300000C9446000C9466000C9466000C946600F4
S11300100C9466000C9466000C9466000C946600C4
S11300200C9466000C9466000C9466000C946600B4
S11300300C9466000C9466000C9466000C946600A4
S11300400C9466000C9466000C9480010C94660079
S11300500C9466000C9466000C9466000C94660084
S11300600C9466000C9466000C9466000C94660074
S11300700C9466000C9466000C9466000C94660064
S11300800C9466000C9466000C94660011241FBE48
S1130090CFEFD0E4DEBFCDBF12E0A0E0B1E0E0E1FD
S11300A0FAE000E00BBF02C007900D92A430B10744
S11300B0D9F71BBE12E0A4E0B2E001C01D92A93042
S11300C0B107E1F70E949F010C9406050C9400000F
S11300D0249A209A26982C9828980895289820E104
S11300E02A95F1F700C0289AE82FF92F50E0A7E0ED
S11300F0B0E060E021C023B130E020743070022E03
S1130100232F000C221F330B000C221F331F082E39
S113011002C0220F331F0A94E2F7422B2C9A00C02C
S113012000C000002C9801972FEF8F3F920719F71A
S113013041935F5F523019F0CD01462FDCCF089513
S11301405C9A00C05C980895CF93DF93D82F662300
S113015011F05F9A01C05F985D988AB18F608AB987
S1130160CBB1C07F8D2F82958F708C2B8BB90E9461
S1130170A000DF70DC2BDBB90E94A000CF60CBB9FC
S1130180DF91CF910895882311F05F9A01C05F98A1
S11301905D9A8AB1807F8AB95C9A00C099B15C98F3
S11301A000C05C9A00C089B19295907F8F705C9872
S11301B0892B089580E00E94C3008823DCF38AE041
S11301C090E00197F1F780E00E94C3000895CF9377
S11301D0C82F0E94DA008C2F60E00E94A400CF9107
S11301E00895CF93C82F0E94DA008C2F61E00E94FB
S11301F0A400CF910895662321F480580E94E7005B
S1130200089580540E94E70008950E94DA0090E067
S1130210089581E00E94E700089582E00E94E700CB
S11302200895CF93C82F0E94DA00CA3049F480346D
S113023010F480E401C080E080580E94E70004C00C
S11302408C2F61E00E94A400CF910895CF93DF9397
S1130250EC018881882331F021960E941101899153
S11302608823D9F7DF91CF910895CF93DF93EC01E1
S1130270FC018491882341F021960E941101FE0122
S1130280219684918823C9F7DF91CF9108951F9314
S1130290CF93DF93182F8AB18F608AB9579A559AF2
S11302A0549A80E898E30197F1F7599A589A0E9472
S11302B0A00080E891E60197F1F70E94A000C0E455
S11302C0D1E0CE010197F1F70E94A000CE01019781
S11302D0F1F758980E94A0002197F1F788E20E9454
S11302E0E70088E00E94E7000E94090186E00E947E
S11302F0E700812F0E94E700DF91CF911F910895BD
S11303001F920F920FB60F920BB60F9211248F9378
S1130310EF93FF93809108028E5F80930802E3E0DD
S1130320F1E0E80FF11D808188B9FF91EF918F9181
S11303300F900BBE0F900FBE0F901F901895CF9388
S1130340DF9300D000D0CDB7DEB7ECE7F0E08081DA
S11303508064808380818F778083EBE7F0E0808105
S1130360887F8083EAE7F0E08081806280838081F7
S1130370806880838081806480830E9468008FEF1E
S113038087B988B99AB18AB98BB985B5816085BDB9
S1130390EEE6F0E080818160808316BC1092080252
S11303A078948FEF99E6A8E181509040A040E1F75E
S11303B000C000008CE00E9447018FEF99E6A8E19D
S11303C081509040A040E1F700C000000E94090164
S11303D00F2EF6E0EF2EF2E0FF2EF02D8E010F5FD0
S11303E01F4F0F2EF0E0CF2EF1E0DF2EF02DC701CE
S11303F00E946E0000D000D000D0EDB7FEB7319659
S1130400ADB7BEB712961C930E931197D382C282D6
S11304108091040290910502958384830E943002A6
S11304208FEF99E6A8E181509040A040E1F700C029
S11304300000ADB7BEB716960FB6F894BEBF0FBE98
S1130440ADBFC8010E9426018FEF99E6A8E1815053
S11304509040A040E1F700C000000E940901C7CF0E
S11304600F931F93CF93DF93CDB7DEB72E970FB6BD
S1130470F894DEBF0FBECDBF0D891E8986E08C8344
S11304801A8309838FEF9FE79E838D83AE01475EB6
S11304905F4FCE0101966F89788D0E945F02EF81D4
S11304A0F885E00FF11F10822E960FB6F894DEBF88
S11304B00FBECDBFDF91CF911F910F9108952F9261
S11304C03F924F925F926F927F928F929F92AF92E0
S11304D0BF92CF92DF92EF92FF920F931F93CF932D
S11304E0DF93CDB7DEB72D970FB6F894DEBF0FBEFE
S11304F0CDBF3C017D876C875A01FC0117821682AF
S1130500838181FFC8C12E010894411C511CF30151
S11305109381EC85FD8593FD859193FF8191FD8702
S1130520EC87882309F4B3C1853241F493FD8591A6
S113053093FF8191FD87EC87853229F490E0B30124
S11305400E947C04E4CFFF24EE2410E01032B0F4C7
S11305508B3269F08C3228F4803251F0833271F49A
S11305600BC08D3239F0803349F411602CC0126015
S1130570146029C0186027C0106125C017FD2EC063
S1130580282F20532A3098F416FF08C08F2D880F87
S1130590F82EFF0CFF0CF80EF20E15C08E2D880FEE
S11305A0E82EEE0CEE0CE80EE20E10620CC08E3259
S11305B021F416FD6CC1106406C08C3611F4106869
S11305C002C0883659F4EC85FD8593FD859193FF2F
S11305D08191FD87EC87882309F0B8CF982F955433
S11305E0933018F09052933038F424E030E0A20EA7
S11305F0B31E3FE339830FC0833631F0833781F074
S1130600833509F05AC022C0F5018081898322E034
S113061030E0A20EB31E21E0C22ED12C420114C040
S113062092E0292E312C2A0C3B1CF501808091800C
S113063016FF03C06F2D70E002C06FEF7FEFC4019F
S11306400E9471046C0151011F7715C082E0282EAD
S1130650312C2A0C3B1CF5018080918016FF03C0CD
S11306606F2D70E002C06FEF7FEFC4010E9466043B
S11306706C011068510113FD1CC006C080E290E0BB
S1130680B3010E947C04EA948E2D90E0C816D9062A
S1130690A8F30FC0F40117FD859117FF81914F0155
S11306A090E0B3010E947C04E110EA940894C1082C
S11306B0D108C114D10471F7E7C0843611F089362A
S11306C051F5F50117FF07C080819181A281B381A3
S11306D024E030E008C080819181AA2797FDA0958D
S11306E0BA2F22E030E0A20EB31E012F0F76B7FF1F
S11306F008C0B095A095909581959F4FAF4FBF4F7F
S11307000068BC01CD01A2012AE030E00E94A804E7
S1130710D82ED4183FC0853721F41F7E2AE030E05C
S113072020C0197F8F36A9F0803720F4883509F06E
S1130730AEC00BC0803721F0883709F0A8C001C0D3
S1130740106114FF09C0146007C014FF08C01660CC
S113075006C028E030E005C020E130E002C020E11E
S113076032E0F50117FF07C06081718182819381B6
S113077044E050E006C06081718180E090E042E096
S113078050E0A40EB51EA2010E94A804D82ED418CD
S1130790012F0F7706FF09C00E7FDF1430F404FF2A
S11307A006C002FD04C00F7E02C01D2D01C01F2D16
S11307B0802F90E004FF0CC0FE01ED0DF11D20819F
S11307C0203311F4097E09C002FF06C01E5F05C074
S11307D086789070009709F01F5F802E992403FD9E
S11307E012C000FF0DC0FD2C1E1550F4FE0CF11AB2
S11307F01E2D06C080E290E0B3010E947C041F5FBE
S11308001E15C0F304C01E1510F4E11A01C0EE2435
S113081084FE0FC080E390E0B3010E947C0482FE5A
S11308201FC081FE03C088E590E010C088E790E017
S11308300DC0C40186789070009791F081FC02C0CD
S113084080E201C08BE207FD8DE290E0B3010E94DB
S11308507C0406C080E390E0B3010E947C04FA9417
S1130860DF14C0F3DA94F201ED0DF11D808190E004
S1130870B3010E947C04DD20A9F706C080E290E069
S1130880B3010E947C04EA94EE20C1F740CEF30148
S11308908681978102C08FEF9FEF2D960FB6F89453
S11308A0DEBF0FBECDBFDF91CF911F910F91FF909F
S11308B0EF90DF90CF90BF90AF909F908F907F90FC
S11308C06F905F904F903F902F900895FC0105909A
S11308D0615070400110D8F7809590958E0F9F1F3E
S11308E00895FC016150704001900110D8F7809583
S11308F090958E0F9F1F08950F931F93CF93DF93AF
S11309008C01EB018B8181FF1BC082FF0DC02E8106
S11309103F818C819D812817390764F4E881F9812E
S11309200193F983E88306C0E885F985802F09954A
S1130930009731F48E819F8101969F838E8302C03C
S11309400FEF1FEFC801DF91CF911F910F91089511
S1130950FA01AA27283051F1203181F1E8946F93EC
S11309606E7F6E5F7F4F8F4F9F4FAF4FB1E03ED092
S1130970B4E03CD0670F781F891F9A1FA11D680F30
S1130980791F8A1F911DA11D6A0F711D811D911D63
S1130990A11D20D009F468943F912AE0269F1124D8
S11309A03019305D3193DEF6CF010895462F47703C
S11309B0405D4193B3E00FD0C9F7F6CF462F4F7097
S11309C0405D4A3318F0495D31FD4052419302D0F5
S11309D0A9F7EACFB4E0A69597958795779567959B
S11309E0BA95C9F700976105710508959B01AC019B
S11309F00A2E06945795479537952795BA95C9F7C2
S1130A00620F731F841F951FA01D0895F894FFCFD4
S1130A10257500808386898C909396999C9FA2A5C6
S1130A20A8ABAEB1B4B6B9BCBFC2C4C7C9CCCED1F1
S1130A30D3D6D8DADCDEE0E2E4E6E8EAECEDEFF087
S1130A40F2F3F4F6F7F8F9FAFBFBFCFDFDFEFEFE0B
S1130A50FFFFFFFFFFFFFFFEFEFDFDFCFCFBFAF9BD
S1130A60F8F7F6F5F4F2F1F0EEECEBE9E7E5E3E1A3
S1130A70DFDDDBD9D7D4D2D0CDCBC8C5C3C0BDBB95
S1130A80B8B5B2AFACA9A7A4A09D9A9794918E8B48
S1130A908885827E7B7875726F6C696663605C5949
S1130AA05754514E4B484543403D3B383533302E27
S1130AB02C29272523211F1D1B1917151412100F6C
S1130AC00E0C0B0A090807060504040303020201BD
S1130AD001010101010102020203030405050607E5
S1130AE008090A0C0D0E1011131416181A1C1E20D6
S1130AF0222426282A2D2F323437393C3E414447BC
S1130B004A4C4F5255585B5E6164676A6D707477E6
S1070B107A7D800066
S9030000FC
