S01200006F7574707574746573742E73726563A1
S11300000C9446000C9465000C9465000C946500F7
S11300100C9465000C9465000C9465000C946500C8
S11300200C9465000C94D2000C9465000C9465004B
S11300300C9465000C94FA000C9465000C94650013
S11300400C944B010C9465000C9465000C946500B1
S11300500C9465000C9465000C9465000C94650088
S11300600C9465000C9465000C9465000C94650078
S11300700C9465000C9465000C9465000C94650068
S11300800C9465000C9465000C94650011241FBE4B
S1130090CFEFD0E4DEBFCDBF12E0A0E0B1E0EEEEE2
S11300A0F4E000E00BBF02C007900D92A030B1074E
S11300B0D9F723E0A0E0B2E001C01D92A134B20759
S11300C0E1F70E9463020C9475020C940000249AD8
S11300D0209A26982C98289808958091330290911C
S11300E0340280FF04C021E02093320202C0109247
S11300F0320281FF04C021E02093310202C0109239
S1130100310282FF04C021E02093300202C0109229
S1130110300283FF04C021E020932F0202C010921A
S11301202F0284FF04C021E020932E0202C010920B
S11301302E0285FF04C021E020932D0202C01092FC
S11301402D0286FF04C021E020932C0202C01092ED
S11301502C0287FF04C021E020932B0202C01092DE
S11301602B0290FF04C021E020932A0202C01092C7
S11301702A0291FF04C021E02093290202C01092B8
S1130180290292FF04C021E02093280202C01092A9
S1130190280293FF04C081E08093270208951092FF
S11301A0270208951F920F920FB60F9211240BB6D7
S11301B00F922F933F934F935F936F937F938F93FC
S11301C09F93AF93BF93EF93FF930E946D00FF91B2
S11301D0EF91BF91AF919F918F917F916F915F91BB
S11301E04F913F912F910F900BBE0F900FBE0F9028
S11301F01F9018951F920F920FB60F9211242F93F0
S11302003F934F938F939F9320912602211105C012
S11302102898000000000000289A23B126FB8827B4
S113022080F990E0409126022FE030E0241B310950
S113023002C0880F991F2A95E2F720912402309179
S11302402502822B932B90932502809324022C9ACF
S1130250000000002C98809126028F5F803118F4F2
S1130260809326020EC0109226028091240290915F
S11302702502909334028093330210922502109247
S113028024029F918F914F913F912F910F900FBE18
S11302900F901F9018951F920F920FB60F92112472
S11302A00BB60F920F931F932F933F934F935F932C
S11302B06F937F938F939F93AF93BF93CF93DF936A
S11302C0EF93FF933091190220911802230F30917C
S11302D01A02230F30911B02230F30911C02230FAB
S11302E030911D02230F30911E02230F30911F0203
S11302F0230F30912002230F30912102230F3091DC
S11303002202230F30912302230F28B9E0E0F2E008
S11303102081318129543E4F31832083E2E0F2E091
S1130320208131812F523E4F31832083E4E0F2E07B
S11303302081318123513E4F31832083E6E0F2E076
S113034020813181265F3D4F31832083E8E0F2E054
S113035020813181275D3D4F31832083EAE0F2E043
S113036020813181265B3D4F31832083ECE0F2E034
S11303702081318123593D4F31832083EEE0F2E027
S1130380208131812E563D4F31832083E0E1F2E01C
S11303902081318127543D4F31832083E2E1F2E013
S11303A0208131812E513D4F31832083E4E1F2E0FD
S11303B020813181225F3C4F31832083E6E1F2E0EA
S11303C020813181235C3C4F31832083609135024D
S11303D070913602E7E2F2E0C0E0D2E008E112E018
S11303E023E332E04191442359F0898190E0AB0149
S11303F0480F591FDA014C9146954695D8014C9304
S113040022960F5F1F4FE217F30761F7FF91EF91F9
S1130410DF91CF91BF91AF919F918F917F916F9118
S11304205F914F913F912F911F910F910F900BBEB0
S11304300F900FBE0F901F901895A0E8B0E01C928B
S1130440E1E8F0E010821092820010928500109290
S113045084008C9182608C9380818C61808384E69B
S113046090E0909387008093860082E390E09093DD
S113047089008093880082E080936F000895A0EB48
S1130480B0E01C92E1EBF0E010821092B20085E043
S11304908093B3008C9183608C9380818D60808382
S11304A082E080937000089514BC15BC16BC80E4EF
S11304B087BD84B5836084BD85B58A6085BD82E0CF
S11304C080936E00089578940E94670080E091E024
S11304D090933602809335028FEF87B90E941D02F4
S11104E00E9454020E943F02FFCFF894FFCF07
S11304EE808386898C909396999C9FA2A5A8ABAE87
S11304FEB1B4B6B9BCBFC2C4C7C9CCCED1D3D6D899
S113050EDADCDEE0E2E4E6E8EAECEDEFF0F2F3F456
S113051EF6F7F8F9FAFBFBFCFDFDFEFEFEFFFFFF0E
S113052EFFFFFFFFFEFEFDFDFCFCFBFAF9F8F7F6FC
S113053EF5F4F2F1F0EEECEBE9E7E5E3E1DFDDDB18
S113054ED9D7D4D2D0CDCBC8C5C3C0BDBBB8B5B234
S113055EAFACA9A7A4A09D9A9794918E8B888582FF
S113056E7E7B7875726F6C696663605C5957545103
S113057E4E4B484543403D3B383533302E2C2927CE
S113058E2523211F1D1B1917151412100F0E0C0BEA
S113059E0A09080706050404030302020101010106
S11305AE0101010202020303040505060708090AF4
S11305BE0C0D0E1011131416181A1C1E20222426AC
S11305CE282A2D2F323437393C3E4144474A4C4F6A
S11305DE5255585B5E6164676A6D7074777A7D807C
S9030000FC
