:100000000C9446000C9465000C9465000C946500FB
:100010000C9465000C9465000C9465000C946500CC
:100020000C9465000C9465000C9465000C946500BC
:100030000C9465000C94B7010C9465000C94650059
:100040000C94DF010C9465000C9465000C94650021
:100050000C9465000C9465000C9465000C9465008C
:100060000C9465000C9465000C9465000C9465007C
:100070000C9465000C9465000C9465000C9465006C
:100080000C9465000C9465000C94650011241FBE4F
:10009000CFEFD0E4DEBFCDBF12E0A0E0B1E0EEEDE7
:1000A000F5E000E00BBF02C007900D92A030B10751
:1000B000D9F722E0A0E0B2E001C01D92A931B20759
:1000C000E1F70E94D1020C94ED020C940000249AF6
:1000D000209A26982C9828980895CF93289840E144
:1000E0004A95F1F700C0289AE82FF92F72E0C7E08F
:1000F000B0E0A0E017C043B146FB222720F930E072
:10010000A901082E02C0440F551F0A94E2F7642B80
:100110002C9A00C000C000002C98019760F76193F2
:10012000715021F08C2F9B2F6A2FE5CFCF9108952E
:100130005898813011F45C9A0EC05C980CC066230C
:1001400014F45D9A01C05D985F98660F5F9A8150C4
:10015000B1F7589A089588E0F2CF1F93CF93DF93B9
:10016000182FC62FD62FD695D695D6956D2F6064AD
:1001700080E00E949800612F606880E00E949800F3
:100180008D2F90E0919581959109880F991F880F87
:10019000991F880F991FBC016C0F711D81E090E0C1
:1001A0009C0102C0220F331F6A95E2F7B9010E9439
:1001B0009800DF91CF911F910895EF92FF920F93D6
:1001C0001F93CF93DF93082FD62F142FF22E621791
:1001D00080F4E82E0AC06D2F8C2F0E94AD00CF5FF7
:1001E000C117C8F3DF5FDF1520F40117D8F7CE2D54
:1001F000F2CFDF91CF911F910F91FF90EF90089573
:10020000CF93DF93C8EFD1E060E081E00E949800D7
:1002100021972097C9F7DF91CF9108958FEF8AB981
:1002200059982FEF80E792E0215080409040E1F70D
:1002300000C00000599A58988FE097E20197F1F7B3
:1002400000C0000059980000599A599892E09A9578
:10025000F1F700C0599A589822E02A95F1F700C0AA
:10026000589A82E08A95F1F700C0599A61E280E0DD
:100270000E94980061EC80E00E94980066E080E0B7
:100280000E94980063E180E00E94980060E280E0B4
:100290000E9498000E9400016CE080E00E9498009B
:1002A000589808958091090290910A0280FF04C035
:1002B00021E02093100202C01092100281FF04C0BE
:1002C00021E020930F0202C010920F0282FF04C0AF
:1002D00021E020930E0202C010920E0283FF04C0A0
:1002E00021E020930D0202C010920D0290FF04C085
:1002F00021E02093180202C01092180291FF04C05E
:1003000021E02093170202C01092170292FF04C04E
:1003100021E02093160202C01092160293FF04C03F
:1003200021E02093150202C01092150294FF04C030
:1003300021E02093140202C01092140295FF04C021
:1003400021E02093130202C01092130296FF04C012
:1003500021E02093120202C010921202992324F489
:1003600081E08093110208951092110208951F9266
:100370000F920FB60F9211240BB60F922F933F934B
:100380004F935F936F937F938F939F93AF93BF939D
:10039000EF93FF930E945201FF91EF91BF91AF91B4
:1003A0009F918F917F916F915F914F913F912F918D
:1003B0000F900BBE0F900FBE0F901F9018951F92BD
:1003C0000F920FB60F9211240BB60F928F939F933B
:1003D000EF93FF93809100028C5F809300029091D5
:1003E0000D02992359F0E0910102F0910202E80F09
:1003F000F11D808188B980EF87BDA6C090910E0263
:10040000992359F0E0910102F0910202E80FF11DE9
:10041000808188B982EE87BD97C090910F029923A1
:1004200059F0E0910102F0910202E80FF11D808184
:1004300088B986ED87BD88C090911002992359F044
:10044000E0910102F0910202E80FF11D808188B96C
:100450008AEC87BD79C090911102992359F0E091FF
:100460000102F0910202E80FF11D808188B98EEB44
:1004700087BD6AC090911202992359F0E091010260
:10048000F0910202E80FF11D808188B984EB87BDED
:100490005BC090911302992359F0E0910102F09111
:1004A0000202E80FF11D808188B98AEA87BD4CC03D
:1004B00090911402992359F0E0910102F091020207
:1004C000E80FF11D808188B980EA87BD3DC0909119
:1004D0001502992359F0E0910102F0910202E80F10
:1004E000F11D808188B987E987BD2EC090911602E1
:1004F000992359F0E0910102F0910202E80FF11DF9
:10050000808188B98FE887BD1FC090911702992319
:1005100059F0E0910102F0910202E80FF11D808193
:1005200088B987E887BD10C090911802992359F0C7
:10053000E0910102F0910202E80FF11D808188B97B
:100540008FE787BD01C018B8FF91EF919F918F9100
:100550000F900BBE0F900FBE0F901F901895A0E844
:10056000B0E01C92E1E8F0E010821092820010925C
:100570008500109284008C91826C8C9380818961BB
:10058000808380E090EC909389008093880080E0E5
:1005900090EF909387008093860082E080936F00B5
:1005A000089578940E94670080E091E090930202A1
:1005B000809301028FEF87B90E940E010E94000113
:1005C00028E248E261E081E00E94DD000E94AF0283
:0E05D00089E092E00E946D00FBCFF894FFCF0F
:1005DE00808386898C909396999C9FA2A5A8ABAE9A
:1005EE00B1B4B6B9BCBFC2C4C7C9CCCED1D3D6D8AC
:1005FE00DADCDEE0E2E4E6E8EAECEDEFF0F2F3F46A
:10060E00F6F7F8F9FAFBFBFCFDFDFEFEFEFFFFFF21
:10061E00FFFFFFFFFEFEFDFDFCFCFBFAF9F8F7F60F
:10062E00F5F4F2F1F0EEECEBE9E7E5E3E1DFDDDB2B
:10063E00D9D7D4D2D0CDCBC8C5C3C0BDBBB8B5B247
:10064E00AFACA9A7A4A09D9A9794918E8B88858212
:10065E007E7B7875726F6C696663605C5957545116
:10066E004E4B484543403D3B383533302E2C2927E1
:10067E002523211F1D1B1917151412100F0E0C0BFD
:10068E000A09080706050404030302020101010119
:10069E000101010202020303040505060708090A07
:1006AE000C0D0E1011131416181A1C1E20222426BF
:1006BE00282A2D2F323437393C3E4144474A4C4F7D
:1006CE005255585B5E6164676A6D7074777A7D808F
:00000001FF
