S01200006F7574707574746573742E73726563A1
S11300000C9446000C9465000C9465000C946500F7
S11300100C9465000C9465000C9465000C946500C8
S11300200C9465000C94B9030C9465000C94650061
S11300300C9465000C940D040C9465000C946500FC
S11300400C9435040C9465000C9465000C946500C4
S11300500C9465000C9465000C9465000C94650088
S11300600C9465000C9465000C9465000C94650078
S11300700C9465000C9465000C9465000C94650068
S11300800C9465000C9465000C94650011241FBE4B
S1130090CFEFD0E4DEBFCDBF14E0A0E0B1E0E8EBE9
S11300A0FBE000E00BBF02C007900D92A63AB10737
S11300B0D9F728E0A6EAB4E001C01D92A639B20738
S11300C0E1F70E9469050C94DA050C940000249A67
S11300D0209A26982C9828980895CF93289840E140
S11300E04A95F1F700C0289AE82FF92F72E0C7E08B
S11300F0B0E0A0E017C043B146FB222720F930E06E
S1130100A901082E02C0440F551F0A94E2F7642B7C
S11301102C9A00C000C000002C98019760F76193EE
S1130120715021F08C2F9B2F6A2FE5CFCF9108952A
S113013082E695E090937B0780937A07089581E6A1
S113014095E090937B0780937A07089556982198B9
S1130150229823985E9A85B18E6085B9089580911E
S11301606505882339F0E0917C07F0917D07828151
S11301708F5F828380916405882339F0E0917C0746
S1130180F0917D0782818150828380916605882366
S1130190F1F0E0917C07F0917D07A281B0E0AA0F15
S11301A0BB1FAE0FBF1F17960D90BC91A02D50968C
S11301B0FC93EE931F97828190E0880F991FE80FBC
S11301C0F91F8781908590937D0780937C07E09148
S11301D07C07F0917D07828190E0880F991FE80FDA
S11301E0F91F0780F085E02D0380F481E02D30971E
S11301F009F0099580916305882351F0E0917C070B
S1130200F0917D078785908990937D0780937C0783
S11302100895EF92FF920F931F93CF93DF930F2EC6
S1130220F6EAEF2EF4E0FF2EF02D81E092E0D70104
S11302308D939C9347EB54E089E092E0EA01998323
S11302408883AAEEB4E0B093BF04A093BE04E9EDA2
S1130250F4E0F093C104E093C0048DE092E01196C1
S11302609C938E9388E990E09093EE048093ED0440
S113027026E132E0318320830BEF14E02CE132E0FD
S1130280E80139832883B0930305A0930205F09312
S11302900505E093040568EC74E029E232E0EB0123
S11302A039832883B093D004A093CF04F093D2046D
S11302B0E093D1042CE035E0E6E3F2E0D901ED93DC
S11302C0FC93109314050093130570931605609323
S11302D01505509318054093170540E555E062E471
S11302E072E0EA01798368839093540580935305FF
S11302F0EFE3F5E069E472E0718360836FE970E035
S11303007093430560934205AEE2B5E061E572E0A7
S113031011967C936E93909332058093310550939C
S1130320360540933505F0933805E0933705109270
S11303303A0510923905EDE1F5E011821082F0934F
S11303402D05E0932C053093250520932405B093C7
S11303502705A0932605F0922905E0922805F0933D
S11303607D07E0937C07DF91CF911F910F91FF9060
S1130370EF9008954E9B03C01092630503C081E083
S113038080936305199B03C01092640503C081E048
S1130390809364051A9B03C01092650503C081E035
S11303A0809365051B9B03C010926605089581E048
S11303B08093660508955C98589898E0882314F40F
S11303C05F9A01C05F985D98880F5D9A9150B1F76C
S11303D05C9A089590E0FC01EE0FFF1F8E0F9F1FA3
S11303E0FC01EE0FFF1F84E5689FE00DF11D112451
S11303F0A42FB0E09097CD01880F991FA80FB91FC3
S1130400AA0FBB1FA358BD4FEE57FA4F80E022231B
S113041021F09C919095908302C09C9190838F5F72
S113042011963196863099F70895BF92CF92DF9254
S1130430EF92FF920F931F93CF93DF93EA014881CA
S11304404423C9F0219690E0C22ED12CE62EF12C43
S1130450082F10E0BB24B394B90E50E09601B70105
S1130460F801E90FF11DCF010E94EA0149914423EB
S113047011F09B2DEFCFDF91CF911F910F91FF9042
S1130480EF90DF90CF90BF9008955C98589AA2E8BF
S1130490B5E08AE797E048E012C03C91332314F4B6
S11304A05F9A01C05F985D983081330F30830000FC
S11304B05D9A215091F71196A817B90719F0242FC6
S11304C0FD01EBCF5C9A0895E2E8F5E08AE797E056
S11304D01192E817F907E1F708950E9464020E9457
S11304E0450208958FEF8AB95A9887EA91E60197F1
S11304F0F1F700C000005A9A5C9881EE94E00197ED
S1130500F1F700C000005A9800005A9A5A98000067
S11305105A9A5C9800005C9A00005A9A81E290E032
S11305200E94DB0181EC90E00E94DB0186E090E018
S11305300E94DB0183E190E00E94DB0180E290E015
S11305400E94DB010E946D028CE090E00E94DB01BE
S11305505C98089524E5829FC0011124FC01EE57A4
S1130560FA4F80E09081909591938F5F8435D1F715
S11305700895FF920F931F93CF93DF9300D000D081
S1130580CDB7DEB78CE0809362054AE050E0BE014F
S11305906F5F7F4F8CE090E00E949A05E0917C07AA
S11305A0F0917D070780F085E02D3097E1F100E0C0
S11305B010E0F12C4081518120E06F2D80E00E94F9
S11305C01502E0917C07F0917D0782818F1102C0B2
S11305D00E94AA02E0917C07F0917D07000F111F91
S11305E0E00FF11F0780F085E02D83819481885905
S11305F0904041F420E0AE014F5F5F4F6F2D8BE0E0
S11306000E941502F3940F2D10E0E0917C07F09105
S11306107D07C801880F991FE80FF91F0780F0852F
S1130620E02D309739F60F900F900F900F90DF91D7
S1130630CF911F910F91FF900895F8948093170024
S1130640609316007E0378948091010008958823B6
S1130650C9F070E0FB01EB58FA4F80818F5F808313
S1130660853108F1FB01E058F84F8081811105C004
S113067081E0FB01E058F84F8083FB01EB58FA4F0F
S11306801082089570E0FB01E759FA4F80818F5F73
S11306908083853140F0FB01E058F84F1082FB0164
S11306A0E759FA4F10820895809192079091930729
S11306B080FF04C021E02093660502C01092660505
S11306C081FF04C021E02093650502C010926505F6
S11306D082FF04C021E02093640502C010926405E7
S11306E083FF04C021E02093630502C010926305D8
S11306F090FF04C021E020936E0502C010926E05A5
S113070091FF04C021E020936D0502C010926D0595
S113071092FF04C021E020936C0502C010926C0586
S113072093FF04C021E020936B0502C010926B0577
S113073094FF04C021E020936A0502C010926A0568
S113074095FF04C021E02093690502C01092690559
S113075096FF04C021E02093680502C0109268054A
S1130760992324F481E08093670508951092670526
S113077008951F920F920FB60F9211240BB60F9289
S11307802F933F934F935F936F937F938F939F9395
S1130790AF93BF93EF93FF93809167058F5F80932F
S11307A06705843669F40E94AF000E94BA010E9472
S11307B0640280E00E94B9020E944502109267051B
S11307C080918207882381F080916805853E18F422
S11307D08F5F8093680580916805809300010AC04B
S11307E081508093000106C0109268058091000139
S11307F08111F6CFFF91EF91BF91AF919F918F91AE
S11308007F916F915F914F913F912F910F900BBE0C
S11308100F900FBE0F901F9018951F920F920FB656
S11308200F9211240BB60F922F933F934F935F9324
S11308306F937F938F939F93AF93BF93EF93FF93A4
S11308400E945403FF91EF91BF91AF919F918F91BB
S11308507F916F915F914F913F912F910F900BBEBC
S11308600F900FBE0F901F9018951F920F920FB606
S11308700F9211240BB60F922F933F934F935F93D4
S11308806F937F938F939F93AF93BF93EF93FF9354
S1130890909181059E5F90938105809182078111DB
S11308A011C080910001833058F0E0917E07F091EF
S11308B07F07E90FF11D608186950E941D0388B9A9
S11308C086ED87BD80918007882369F0809181053A
S11308D0E0917E07F0917F07E80FF11D808188B9D0
S11308E080EF87BDC1C080918107882369F0809122
S11308F08105E0917E07F0917F07E80FF11D80816B
S113090088B982EE87BDB0C080918207882391F0B8
S113091080918105E0917E07F0917F07E80FF11D3A
S113092080916805608186950E941D0388B986EDD3
S113093087BD9AC080918307882369F080918105DF
S1130940E0917E07F0917F07E80FF11D808188B95F
S11309508AEC87BD89C080918407882369F08091DF
S11309608105E0917E07F0917F07E80FF11D8081FA
S113097088B98EEB87BD78C080918507882369F09C
S113098080918105E0917E07F0917F07E80FF11DCA
S1130990808188B984EB87BD67C0809186078823EE
S11309A069F080918105E0917E07F0917F07E80F5F
S11309B0F11D808188B98AEA87BD56C08091870776
S11309C0882369F080918105E0917E07F0917F078B
S11309D0E80FF11D808188B980EA87BD45C0809108
S11309E08807882369F080918105E0917E07F09162
S11309F07F07E80FF11D808188B987E987BD34C07E
S1130A0080918907882369F080918105E0917E07B0
S1130A10F0917F07E80FF11D808188B98FE887BDC9
S1130A2023C080918A07882369F080918105E09131
S1130A307E07F0917F07E80FF11D808188B987E870
S1130A4087BD12C080918B07882369F0809181054E
S1130A50E0917E07F0917F07E80FF11D808188B94E
S1130A608FE787BD01C018B8FF91EF91BF91AF9197
S1130A709F918F917F916F915F914F913F912F91B2
S1130A800F900BBE0F900FBE0F901F901895A0EB08
S1130A90B0E01C92E1EBF0E010821092B20088EC1E
S1130AA08093B3008C9183608C9380818D6080836C
S1130AB082E0809370000895ECE7F0E01082AAE7EA
S1130AC0B0E01C928C91876C8C93808180668083CB
S1130AD0089578940E94670081E091E090937F07E5
S1130AE080937E078FEF87B90E9472020E946D0285
S1130AF00E9447050E94A6000E945C050E9409010D
S1130B0003E615E00F2EFFE6EF2EF5E0FF2EF02DA5
S1130B1082E997E00E946D008AE18A95F1F700C0AE
S1130B20E8016C2F601B89910E942703CE15DF0515
S1130B30C1F7EECF4532510520F4423010F00C9449
S1130B40A505FB011082CB010895BB274A3031F47F
S1130B50992322F4BDE2909581959F4F0C94B105A1
S1130B60BB27FB015527AA27880F991FAA1FA41783
S1130B7010F0A41B83955051B9F7A05DAA3308F077
S1130B80A95DA193009779F7B111B1931192CB01AB
S1130B900C94CA05DC01FC01672F71917723E1F7FE
S1130BA0329704C07C916D9370836291AE17BF0736
S10B0BB0C8F30895F894FFCF87
S1130BB8FFFEFEFEFEFEFEFEFEFEFEFEFEFEFEFE48
S1130BC8FEFEFEFEFEFEFEFEFEFEFEFEFEFEFEFE39
S1130BD8FEFEFEFEFEFEFEFEFEFEFEFEFEFEFEFE29
S1130BE8FEFEFEFEFEFEFEFEFEFEFEFEFEFEFEFE19
S1130BF8FEFEFEFEFEFEFEFEFEFEFEFEFEFEFEFE09
S1130C08FEFEFEFEFEFEFEFEFEFEFEFEFEFEFEFEF8
S1130C18FEFEFEFEFEFEFEFEFEFEFEFEFEFEFEFEE8
S1130C28FEFEFEFEFEFEFEFEFEFEFEFEFEFEFEFED8
S1130C38FE000000000000000000000000000000AA
S1130C480000000000000000000000000000000098
S1130C580000000000000000000000000000000088
S1130C680000000000000000000000000000000078
S1130C780000000000000000000000000000000068
S1130C880000000000000000000000000000000058
S1130C980000000000000000000000000000000048
S1130CA80000000000000000000000000000000038
S1130CB80046696C74657273004C464F0057617640
S1130CC865666F726D004C6576656C004F73636979
S1130CD86C6C61746F722031004F7363696C6C6162
S1130CE8746F722032004F7363696C6C61746F7235
S1130CF8730041747461636B0052656C656173655C
S1130D080041445352004F73632031004F736320F2
S1130D1832004F736320330044656361790053756F
S1130D28737461696E00536F756E6473000000001C
S1130D380000000000002F0000000007000700006A
S1130D48147F147F1400242A7F2A12006264081373
S1130D582300364955225000000503000000001CFA
S1130D68224100000041221C000014083E0814001F
S1130D7808083E0808000000A060000008080808E9
S1130D8808000060600000002010080402003E51C2
S1130D9849453E0000427F400000426151494600F7
S1130DA82141454B31001814127F10002745454551
S1130DB839003C4A494930000171090503003649A4
S1130DC849493600064949291E0000363600000004
S1130DD800563600000008142241000014141414AC
S1130DE81400004122140800020151090600324986
S1130DF859513E007C1211127C007F494949360042
S1130E083E41414122007F4141221C007F4949491A
S1130E1841007F09090901003E4149497A007F08D8
S1130E2808087F0000417F4100002040413F010045
S1130E387F08142241007F40404040007F020C029A
S1130E487F007F0408107F003E4141413E007F0936
S1130E58090906003E4151215E007F09192946000F
S1130E6846494949310001017F0101003F404040A2
S1130E783F001F2040201F003F4038403F006314BC
S1130E8808146300070870080700615149454300C6
S1130E98007F41410000552A552A55000041417FF1
S1130EA800000402010204004040404040000001E8
S1130EB8020400002054545478007F484444380005
S1130EC8384444442000384444487F003854545437
S1130ED81800087E0901020018A4A4A47C007F0855
S1130EE80404780000447D4000004080847D0000B4
S1130EF87F102844000000417F4000007C0418044F
S1130F0878007C0804047800384444443800FC24FD
S1130F182424180018242418FC007C08040408005D
S1130F28485454542000043F444020003C4040208E
S1130F387C001C2040201C003C4030403C004428DD
S1130F48102844001CA0A0A07C004464544C441401
S1090F581414141414002B
S9030000FC
