S01200006F7574707574746573742E73726563A1
S11300000C9446000C9465000C9465000C946500F7
S11300100C9465000C9465000C9465000C946500C8
S11300200C9465000C94F8020C9465000C94650023
S11300300C9465000C944C030C9465000C946500BE
S11300400C9474030C9465000C9465000C94650086
S11300500C9465000C9465000C9465000C94650088
S11300600C9465000C9465000C9465000C94650078
S11300700C9465000C9465000C9465000C94650068
S11300800C9465000C9465000C94650011241FBE4B
S1130090CFEFD0E4DEBFCDBF14E0A0E0B1E0EEE8E6
S11300A0FAE000E00BBF02C007900D92AA32B1073C
S11300B0D9F727E0AAE2B4E001C01D92AE35B20739
S11300C0E1F70E94D6040C9445050C940000249A90
S11300D0209A26982C9828980895CF93289840E140
S11300E04A95F1F700C0289AE82FF92F72E0C7E08B
S11300F0B0E0A0E017C043B146FB222720F930E06E
S1130100A901082E02C0440F551F0A94E2F7642B7C
S11301102C9A00C000C000002C98019760F76193EE
S1130120715021F08C2F9B2F6A2FE5CFCF9108952A
S11301308AE294E090934306809342060895809166
S11301402D04882339F0E0914406F091450682811C
S11301508F5F828380912C04882339F0E0914406D8
S1130160F091450682818150828380912E048823F8
S1130170F1F0E0914406F0914506A281B0E0AA0FA7
S1130180BB1FAE0FBF1F17960D90BC91A02D5096AC
S1130190FC93EE931F97828190E0880F991FE80FDC
S11301A0F91F878190859093450680934406E091DA
S11301B04406F0914506828190E0880F991FE80F6C
S11301C0F91F0780F085E02D0380F481E02D30973E
S11301D009F0099580912B04882351F0E09144069D
S11301E0F09145068785908990934506809344064F
S11301F008954E9B03C010922B0403C081E08093AA
S11302002B04199B03C010922C0403C081E080933B
S11302102C041A9B03C010922D0403C081E0809328
S11302202D041B9B03C010922E04089581E080933B
S11302302E0408955C98589898E0882314F45F9AE3
S113024001C05F985D98880F5D9A9150B1F75C9AF0
S1130250089590E0FC01EE0FFF1F8E0F9F1FFC011D
S1130260EE0FFF1F84E5689FE00DF11D1124A42FFC
S1130270B0E09097CD01880F991FA80FB91FAA0F5E
S1130280BB1FAF5FBD4FE65BFB4F80E0222321F035
S11302909C919095908302C09C9190838F5F11965E
S11302A03196863099F70895BF92CF92DF92EF92FC
S11302B0FF920F931F93CF93DF93EA014881442366
S11302C0C9F0219690E0C22ED12CE62EF12C082FF5
S11302D010E0BB24B394B90E50E09601B701F801C5
S11302E0E90FF11DCF010E9429014991442311F026
S11302F09B2DEFCFDF91CF911F910F91FF90EF9046
S1130300DF90CF90BF9008955C98589AAAE4B4E027
S113031082E496E048E012C03C91332314F45F9ADF
S113032001C05F985D983081330F308300005D9A7F
S1130330215091F71196A817B90719F0242FFD0140
S1130340EBCF5C9A0895EAE4F4E082E496E011923B
S1130350E817F907E1F708950E94A3010E948401B8
S113036008958FEF8AB95A9887EA91E60197F1F7D1
S113037000C000005A9A5C9881EE94E00197F1F76E
S113038000C000005A9800005A9A5A9800005A9ADD
S11303905C9800005C9A00005A9A81E290E00E9406
S11303A01A0181EC90E00E941A0186E090E00E941C
S11303B01A0183E190E00E941A0180E290E00E9419
S11303C01A010E94AC018CE090E00E941A015C9832
S11303D0089524E5829FC0011124FC01E65BFB4FD4
S11303E080E09081909591938F5F8435D1F7089543
S11303F0FF920F931F93CF93DF9300D000D0CDB71C
S1130400DEB78CE080932A044AE050E0BE016F5FBF
S11304107F4F8CE090E00E940505E0914406F09146
S113042045060780F085E02D3097E1F100E010E00B
S1130430F12C4081518120E06F2D80E00E94540115
S1130440E0914406F091450682818F1102C00E941A
S1130450E901E0914406F0914506000F111FE00FF9
S1130460F11F0780F085E02D8381948188599040A5
S113047041F420E0AE014F5F5F4F6F2D8BE00E948F
S11304805401F3940F2D10E0E0914406F0914506D9
S1130490C801880F991FE80FF91F0780F085E02D28
S11304A0309739F60F900F900F900F90DF91CF9106
S11304B01F910F91FF900895F89480931700609313
S11304C016007E0378948091010008958823C9F072
S11304D070E0FB01E35CFB4F80818F5F808385319B
S11304E008F1FB01E85BF94F8081811105C081E0CF
S11304F0FB01E85BF94F8083FB01E35CFB4F108257
S1130500089570E0FB01EF5CFB4F80818F5F808377
S1130510853140F0FB01E85BF94F1082FB01EF5C91
S1130520FB4F1082089580915A0690915B0680FFDC
S113053004C021E020932E0402C010922E0481FFF7
S113054004C021E020932D0402C010922D0482FFE8
S113055004C021E020932C0402C010922C0483FFD9
S113056004C021E020932B0402C010922B0490FFBE
S113057004C021E02093360402C01092360491FF97
S113058004C021E02093350402C01092350492FF88
S113059004C021E02093340402C01092340493FF79
S11305A004C021E02093330402C01092330494FF6A
S11305B004C021E02093320402C01092320495FF5B
S11305C004C021E02093310402C01092310496FF4C
S11305D004C021E02093300402C010923004992317
S11305E024F481E080932F04089510922F04089539
S11305F01F920F920FB60F9211240BB60F922F93E6
S11306003F934F935F936F937F938F939F93AF9396
S1130610BF93EF93FF9380912F048F5F80932F04F8
S1130620843669F40E949F000E94F9000E94A3018D
S113063080E00E94F8010E94840110922F048091AE
S11306404A06882381F080913004853E18F48F5F38
S11306508093300480913004809300010AC081505B
S11306608093000106C01092300480910001811132
S1130670F6CFFF91EF91BF91AF919F918F917F91B1
S11306806F915F914F913F912F910F900BBE0F90FF
S11306900FBE0F901F9018951F920F920FB60F92D6
S11306A011240BB60F922F933F934F935F936F9345
S11306B07F938F939F93AF93BF93EF93FF930E9486
S11306C09302FF91EF91BF91AF919F918F917F9191
S11306D06F915F914F913F912F910F900BBE0F90AF
S11306E00FBE0F901F9018951F920F920FB60F9286
S11306F011240BB60F922F933F934F935F936F93F5
S11307007F938F939F93AF93BF93EF93FF938091C6
S113071049048E5F80934904E0914606F0914706B0
S1130720E80FF11D808188B980914A06811113C0B8
S113073080910001833068F090914904E09146066D
S1130740F0914706E90FF11D608186950E945C02D5
S113075088B986ED87BD80914806882369F0809129
S11307604904E0914606F0914706E80FF11D8081A7
S113077088B980EF87BDC1C080914906882369F09C
S113078080914904E0914606F0914706E80FF11D77
S1130790808188B982EE87BDB0C080914A068823E3
S11307A091F080914904E0914606F0914706E80FE4
S11307B0F11D80913004608186950E945C0288B9A5
S11307C086ED87BD9AC080914B06882369F080919D
S11307D04904E0914606F0914706E80FF11D808137
S11307E088B98AEC87BD89C080914C06882369F05A
S11307F080914904E0914606F0914706E80FF11D07
S1130800808188B98EEB87BD78C080914D0688239E
S113081069F080914904E0914606F0914706E80F9B
S1130820F11D808188B984EB87BD67C080914E0635
S1130830882369F080914904E0914606F0914706C7
S1130840E80FF11D808188B98AEA87BD56C080917E
S11308504F06882369F080914904E0914606F0919F
S11308604706E80FF11D808188B980EA87BD45C03D
S113087080915006882369F080914904E0914606EE
S1130880F0914706E80FF11D808188B987E987BD9B
S113089034C080915106882369F080914904E09125
S11308A04606F0914706E80FF11D808188B98FE86C
S11308B087BD23C080915206882369F08091490442
S11308C0E0914606F0914706E80FF11D808188B952
S11308D087E887BD12C080915306882369F0809110
S11308E04904E0914606F0914706E80FF11D808126
S11308F088B98FE787BD01C018B8FF91EF91BF9108
S1130900AF919F918F917F916F915F914F913F91A3
S11309102F910F900BBE0F900FBE0F901F90189544
S1130920A0E8B0E01C92E1E8F0E0108210928200AE
S113093010928500109284008C9182608C93808147
S11309408D61808384E690E0909387008093860095
S113095082E390E0909389008093880082E0809302
S11309606F000895A0EBB0E01C92E1EBF0E0108280
S11309701092B20088EC8093B3008C9183608C93C6
S113098080818D60808382E080937000089514BC20
S113099015BC16BC88EC87BD84B5836084BD85B561
S11309A0896085BD82E080936E00089578940E94EA
S11309B0670081E091E090934706809346068FEFAD
S11309C087B90E94B1010E94AC010E9490040E9468
S11309D0C7040E94B2040BE214E00F2EF7E3EF2EDB
S11309E0F4E0FF2EF02D8AE596E00E946D0082E48B
S11309F08A95F1F700C0E8016C2F601B89910E9471
S1130A006602CE15DF05C1F7EECF4532510520F45D
S1130A10423010F00C941005FB011082CB010895B4
S1130A20BB274A3031F4992322F4BDE29095819595
S1130A309F4F0C941C05BB27FB015527AA27880F41
S1130A40991FAA1FA41710F0A41B83955051B9F73E
S1130A50A05DAA3308F0A95DA193009779F7B111BD
S1130A60B1931192CB010C943505DC01FC01672F85
S1130A7071917723E1F7329704C07C916D93708371
S1110A806291AE17BF07C8F30895F894FFCF34
S1130A8EFFFEFEFEFEFEFEFEFEFEFEFEFEFEFEFE73
S1130A9EFEFEFEFEFEFEFEFEFEFEFEFEFEFEFEFE64
S1130AAEFEFEFEFEFEFEFEFEFEFEFEFEFEFEFEFE54
S1130ABEFEFEFEFEFEFEFEFEFEFEFEFEFEFEFEFE44
S1130ACEFEFEFEFEFEFEFEFEFEFEFEFEFEFEFEFE34
S1130ADEFEFEFEFEFEFEFEFEFEFEFEFEFEFEFEFE24
S1130AEEFEFEFEFEFEFEFEFEFEFEFEFEFEFEFEFE14
S1130AFEFEFEFEFEFEFEFEFEFEFEFEFEFEFEFEFE04
S1130B0EFE000000000000000000000000000000D5
S1130B1E00000000000000000000000000000000C3
S1130B2E00000000000000000000000000000000B3
S1130B3E00000000000000000000000000000000A3
S1130B4E0000000000000000000000000000000093
S1130B5E0000000000000000000000000000000083
S1130B6E0000000000000000000000000000000073
S1130B7E0000000000000000000000000000000063
S1130B8E000000000000000000002F00000000071D
S1130B9E00070000147F147F1400242A7F2A1200F9
S1130BAE62640813230036495522500000050300E1
S1130BBE0000001C224100000041221C0000140809
S1130BCE3E08140008083E0808000000A06000005B
S1130BDE08080808080000606000000020100804DF
S1130BEE02003E5149453E0000427F4000004261F2
S1130BFE514946002141454B31001814127F100013
S1130C0E2745454539003C4A4949300001710905DB
S1130C1E0300364949493600064949291E00003663
S1130C2E3600000000563600000008142241000071
S1130C3E1414141414000041221408000201510962
S1130C4E0600324959513E007C1211127C007F4934
S1130C5E494936003E41414122007F4141221C0058
S1130C6E7F49494941007F09090901003E4149492B
S1130C7E7A007F0808087F0000417F410000204071
S1130C8E413F01007F08142241007F404040400054
S1130C9E7F020C027F007F0408107F003E41414119
S1130CAE3E007F09090906003E4151215E007F097D
S1130CBE1929460046494949310001017F010100C5
S1130CCE3F4040403F001F2040201F003F4038401F
S1130CDE3F0063140814630007087008070061518D
S1130CEE49454300007F41410000552A552A5500CD
S1130CFE0041417F000004020102040040404040D4
S1130D0E40000001020400002054545478007F482F
S1130D1E44443800384444442000384444487F0056
S1130D2E385454541800087E0901020018A4A4A4CF
S1130D3E7C007F080404780000447D40000040805D
S1130D4E847D00007F102844000000417F40000095
S1130D5E7C04180478007C08040478003844444465
S1130D6E3800FC242424180018242418FC007C08C1
S1130D7E04040800485454542000043F4440200006
S1130D8E3C4040207C001C2040201C003C40304055
S1130D9E3C004428102844001CA0A0A07C004464FD
S10D0DAE544C4414141414141400DB
S9030000FC
